S01500003131612D54696D6572734C65642E7372656396
S11300000C942A000C9447000C9447000C9447006D
S11300100C9447000C94FF000C9447000C94470088
S11300200C9447000C94C7000C9447000C94920065
S11300300C9447000C9447000C9447000C94470020
S11300400C9447000C9447000C9447000C94470010
S11300500C94470011241FBECFE5D8E0DEBFCDBF0E
S113006010E0A0E6B0E0E6E5F5E002C005900D92F0
S1130070AE37B107D9F720E0AEE7B0E001C01D927A
S1130080A239B207E1F70E9438020C94A9020C9439
S11300900000813091F018F0823009F10895109237
S11300A08E0010928D0080918F0082BF89B781608D
S11300B089BF8091900083BF0895109287001092A9
S11300C0860080918800909189009DBD8CBD89B780
S11300D0846089BF1FBC80918A008EBD08951092F0
S11300E08100109280008091820084BD89B7806471
S11300F089BF8091830085BD0895813049F018F04F
S1130100823059F0089570938C0060938B000895A9
S11301107093850060938400089570937F006093CA
S11301207E0008951F920F920FB60F9211242F9301
S11301303F934F935F936F937F938F939F93AF936B
S1130140BF93EF93FF9380918F0082BF80918D00C6
S113015090918E00019690938E0080938D00E09193
S11301608B00F0918C00309709F00995FF91EF9185
S1130170BF91AF919F918F917F916F915F914F91BB
S11301803F912F910F900FBE0F901F9018951F92C3
S11301900F920FB60F9211242F933F934F935F93B7
S11301A06F937F938F939F93AF93BF93EF93FF933B
S11301B080918800909189009DBD8CBD80918600BE
S11301C09091870001969093870080938600E09138
S11301D08400F0918500309709F00995FF91EF9123
S11301E0BF91AF919F918F917F916F915F914F914B
S11301F03F912F910F900FBE0F901F9018951F9253
S11302000F920FB60F9211242F933F934F935F9346
S11302106F937F938F939F93AF93BF93EF93FF93CA
S11302208091820084BD809180009091810001962C
S11302309093810080938000E0917E00F0917F0094
S1130240309709F00995FF91EF91BF91AF919F917C
S11302508F917F916F915F914F913F912F910F906B
S11302600FBE0F901F9018954F925F926F927F92DE
S11302708F929F92AF92BF92CF92DF92EF92FF92B2
S11302800F931F93CF93DF934B015C0129013A0134
S1130290DE2DC0906000D12CE12CF12C0E5F1F4F9D
S11302A0C1E0CD1798F4F801A191B1918F01A30198
S11302B092010E948F02A70196010E946D022815E7
S11302C039054A055B0510F4CF5FEBCF8C2FDF9126
S11302D0CF911F910F91FF90EF90DF90CF90BF903F
S11302E0AF909F908F907F906F905F904F90089504
S11302F08F929F92AF92BF92EF920F931F934A01F6
S11303005B018130A9F120F0823009F464C091C00E
S1130310DB01CA010197A109B10981159044A10526
S1130320B10508F086C056E0E52E01E710E020E0B4
S113033031E040E050E0C501B4010E943401E82FEF
S113034080939000A0916000B0E0A50194010E9408
S11303508F02F0E0EE0FFF1FEF58FF4F2081318135
S113036040E050E00E946D02219520938F0061C00F
S1130370DB01CA010197A109B1090097A044B105A5
S113038008F057C036E0E32E01E710E020E030E04B
S113039041E050E0C501B4010E943401E82F80938C
S11303A08A00A0916000B0E0A50194010E948F0230
S11303B0F0E0EE0FFF1FEF58FF4F2081318140E046
S11303C050E00E946D0231952195310930938900E6
S11303D0209388002EC0DB01CA010197A109B1094D
S11303E081159044A105B10520F588E0E82E01E6C9
S11303F010E020E031E040E050E0C501B4010E948B
S11304003401E82F80938300A0916000B0E0A5013F
S113041094010E948F02F0E0EE0FFF1FEF59FF4F8F
S11304202081318140E050E00E946D0221952093AB
S113043082001F910F91EF90BF90AF909F908F908B
S113044008950C9478019091910081E0892780931C
S1130450910008959091910082E089278093910002
S113046008959091910084E08927809391000895E4
S11304708FEF84BB81BB4CE45DE160E070E080E021
S11304800E94210263E272E080E00E947D0080E02D
S11304900E94490040E355E760E070E081E00E947B
S11304A021026AE272E081E00E947D0048E95AE399
S11304B060E070E082E00E94210261E372E082E089
S11304C00E947D0082E00E94490081E00E94490070
S11304D078948091910085BBFCCFA1E21A2EAA1BCF
S11304E0BB1BFD010DC0AA1FBB1FEE1FFF1FA217E0
S11304F0B307E407F50720F0A21BB30BE40BF50BDD
S1130500661F771F881F991F1A9469F76095709565
S1130510809590959B01AC01BD01CF0108950E9487
S11305209A02A59F900DB49F900DA49F800D911DDC
S113053011240895A29FB001B39FC001A39F700D21
S1130540811D1124911DB29F700D811D1124911DD7
S10905500895F894FFCFAA
S11305561000000100080020004000800000010097
S1110566040000010008004000000100040031
S9030000FC
