:100000000C942A000C9447000C9447000C94470071
:100010000C9447000C9447000C9447000C94470044
:100020000C9447000C9447000C9447000C94470034
:100030000C9447000C9447000C9447000C94470024
:100040000C9447000C9447000C9447000C94470014
:100050000C94470011241FBECFE5D8E0DEBFCDBF12
:1000600010E0A0E6B0E0E0EBF0E102C005900D92F8
:10007000A838B107D9F720E0A8E8B0E001C01D9288
:10008000A839B207E1F70E9443060C9456080C9475
:100090000000009731F025E02A95F1F70000019764
:1000A000F8CF0895009741F0EFE9FFE03197F1F7BD
:1000B00000C000000197F6CF0895982F977086959D
:1000C00086958695813001F130F08230B1F1833030
:1000D00009F44CC008954AB321E030E0662349F0AA
:1000E000B90102C0660F771F9A95E2F7CB01842B06
:1000F00009C0B90102C0660F771F9A95E2F7CB01DC
:10010000809584238ABB089547B321E030E06623BD
:1001100049F0B90102C0660F771F9A95E2F7CB014B
:10012000842B09C0B90102C0660F771F9A95E2F7C8
:10013000CB018095842387BB089544B321E030E050
:10014000662349F0B90102C0660F771F9A95E2F75E
:10015000CB01842B09C0B90102C0660F771F9A95A5
:10016000E2F7CB018095842384BB089541B321E05D
:1001700030E0662349F0B90102C0660F771F9A95F7
:10018000E2F7CB01842B09C0B90102C0660F771FCB
:100190009A95E2F7CB018095842381BB0895982F2F
:1001A0009770869586958695813001F130F0823082
:1001B000B1F1833009F44CC008954BB321E030E035
:1001C000662349F0B90102C0660F771F9A95E2F7DE
:1001D000CB01842B09C0B90102C0660F771F9A9525
:1001E000E2F7CB01809584238BBB089548B321E0CF
:1001F00030E0662349F0B90102C0660F771F9A9577
:10020000E2F7CB01842B09C0B90102C0660F771F4A
:100210009A95E2F7CB018095842388BB089545B376
:1002200021E030E0662349F0B90102C0660F771F74
:100230009A95E2F7CB01842B09C0B90102C0660F81
:10024000771F9A95E2F7CB018095842385BB0895AB
:1002500042B321E030E0662349F0B90102C0660FE5
:10026000771F9A95E2F7CB01842B09C0B90102C030
:10027000660F771F9A95E2F7CB018095842382BBA6
:100280000895282F2770869586958695813049F0A8
:1002900030F0823041F0833079F480B305C089B307
:1002A00003C086B301C083B390E002C095958795E3
:1002B0002A95E2F78170089580E0089511B886E4E8
:1002C00080B984E086BF089584EA86BF06B607FE3B
:1002D000FDCF089584E986BF84E690E00C94490040
:1002E00083B984E886BF06B607FEFDCF089520E4F3
:1002F000829FC0011124846886BF06B607FEFDCF29
:1003000083B108950F931F93CF93C82F84FB662763
:1003100060F908E810E0F80182850E94CF00C5FB73
:10032000662760F9F80183850E94CF00C6FB662727
:1003300060F9F80184850E94CF006C2F661F662744
:10034000661FF8018585CF911F910F910C94CF0006
:10035000CF93DF93C8E8D0E060E08B810E94CF00AC
:1003600060E08C810E94CF0061E08D810E94CF000F
:100370008AE090E00E94490060E08D81DF91CF919A
:100380000C94CF000F931F93CF93C82F682F6170E9
:1003900008E810E0F80186810E94CF00C1FB6627C3
:1003A00060F9F80187810E94CF00C2FB662760F9DF
:1003B000F80180850E94CF00C3FB662760F9F80131
:1003C0008185CF911F910F910C94CF00CF93DF9334
:1003D000C8E8D0E061E08B810E94CF0060E08C81B2
:1003E0000E94CF0061E08D810E94CF008AE090E002
:1003F0000E94490060E08D81DF91CF910C94CF0085
:10040000CF9380918C008F3F09F444C060E08091CD
:1004100095000E945D0060E080918B000E94CF00FB
:1004200061E080918C000E94CF0060E080918D009F
:100430000E94CF008AE090E00E94490061E0809134
:100440008D000E94CF008AE090E00E9449008091D8
:1004500095000E944101C82F80918A00843091F458
:1004600060E080918D000E94CF008AE090E00E94C1
:10047000490061E080918D000E94CF008AE090E009
:100480000E944900C111D1CF61E080919500CF91C8
:100490000C945D0081E090E0CF910C9452008F921B
:1004A0009F92AF92BF92CF92DF92EF92FF920F9303
:1004B0001F93CF93DF93CDB7DEB7982EB62ED42EF1
:1004C000FF84188980938B0060938C0040938D008B
:1004D00020938E0000938F00E0929000C0929100D4
:1004E000A092920080929300F09294001093950055
:1004F0002F3F39F00F3F29F08FEFE81611F0C812A7
:1005000004C084E080938A0013C088E080938A004E
:1005100061E0822F0E945D0061E0802F0E945D00FB
:1005200061E08E2D0E945D0061E08C2D0E945D00D7
:1005300061E0892D0E945D0061E08B2D0E945D00CD
:1005400061E08D2D0E945D0061E08A2D0E945D00BA
:1005500061E0882D0E945D0061E08F2D0E945D00AA
:1005600061E0812FDF91CF911F910F91FF90EF906C
:10057000DF90CF90BF90AF909F908F900C945D00D4
:10058000CF93C82F0E94000280918A00883021F406
:100590008C2F0E94C20107C08C2F0E9482010E94F2
:1005A000A801C295C07F8C2F0E948201CF910C942C
:1005B000A80190918800891758F4109296008093B2
:1005C0009700E82FF0E0E05AFF4F80810C94C002C2
:1005D000089581E00E94C00280E00C94D9026093EB
:1005E000890080938800833040F06F7080E9860F27
:1005F0008093620060536093630084E690E00E9401
:10060000520080918A00883011F488E327C084303A
:1006100039F580E30E9482010E94A80184E690E0FF
:100620000E94520080E30E9482010E94A80188EC8F
:1006300090E00E94490080E30E9482010E94A8018C
:1006400088EC90E00E94490080E20E9482010E94B2
:10065000A80188EC90E00E94490088E20E94C00254
:100660008EE00E94C0020C94E902809197008F5F97
:10067000809397001092960090918800891710F04F
:1006800010929700E0919700F0E0E05AFF4F8081D0
:100690000C94C002CF93C82F90919600809189004E
:1006A000981760F4CA3051F00E94000280918A00CD
:1006B000883049F48C2F0E94C2010CC00E9435037F
:1006C000CA3091F0F1CF8C2F0E9482010E94E60186
:1006D000C295C07F8C2F0E9482010E94E60180910A
:1006E00096008F5F80939600CF910895AF92BF924E
:1006F000CF92DF92EF92FF920F931F93CF93DF93EE
:100700001F92CDB7DEB76B017C01AA24A394B12C54
:100710004423E9F08FEF840F850102C0000F111F01
:100720008A95E2F7012E000C220B330B0C211D21C0
:100730002E213F2181E0012B022B032B09F480E0C5
:10074000805D49830E944A0349814150E1CF0F9067
:10075000DF91CF911F910F91FF90EF90DF90CF909D
:10076000BF90AF900895CF93DF93EC0189918823D8
:1007700019F00E944A03FACFDF91CF9108954F926A
:100780005F926F927F92BF92CF92DF92EF92FF9231
:100790000F931F93CF93DF93CDB7DEB72A970FB692
:1007A000F894DEBF0FBECDBFB82ECB01BA01022F29
:1007B00022E0B21216C0402F2A960FB6F894DEBF80
:1007C0000FBECDBFDF91CF911F910F91FF90EF90A2
:1007D000DF90CF90BF907F906F905F904F900C9480
:1007E0007603611571058105910549F0FE01319689
:1007F0006F017F014B2C512C612C712C2AC080E39E
:100800002A960FB6F894DEBF0FBECDBFDF91CF9111
:100810001F910F91FF90EF90DF90CF90BF907F904E
:100820006F905F904F900C944A036115710581059C
:100830009105A1F0162FA30192010E943408CA016C
:10084000B901B29E10191124F7011083FFEFEF1ABE
:10085000FF0A1E2D1C19101740F30FC00B3068F44F
:10086000F7011082F3CFFE01E10FF11D80818A3084
:1008700038F0895C0E944A0311501111F4CF02C074
:10088000805DF8CF2A960FB6F894DEBF0FBECDBFBD
:10089000DF91CF911F910F91FF90EF90DF90CF905C
:1008A000BF907F906F905F904F9008958F929F922E
:1008B000AF92BF92CF92DF92EF92FF926B017C01D9
:1008C0000E940A074B015C012FEFAB01BC018AE0DB
:1008D0000E94BF038EE20E944A03C501B4010E9438
:1008E00039079B01AC01C701B6010E949D0620E0BB
:1008F00034E244E759E40E94C7070E940A07AB01AB
:10090000BC012FEF8AE0FF90EF90DF90CF90BF9077
:10091000AF909F908F900C94BF03CF92DF92EF9295
:10092000FF920F931F93CF93DF9300D000D01F92BD
:10093000CDB7DEB7FE017096C190D1908F01F60160
:100940008081882309F42CC1853209F00EC176011B
:100950008FEFE81AF80AF601818190ED980F9A302E
:1009600008F0B7C020E090ED980F9A3058F4FAE004
:100970002F9F900D1124292F8FEFE81AF80AF70105
:100980008081F1CF883509F4A8C070F4843409F46B
:1009900050C018F48234D9F4BDC0833509F4DAC0EC
:1009A000853509F47DC0C6C0863609F4C5C040F45B
:1009B000833681F0843621F1823609F0D9C09DC09A
:1009C000853709F459C0883709F479C0C1C0833428
:1009D00008F4E0C06801F2E0CF0ED11CF80180817C
:1009E0000E944A03C0C0893508F1863609F4A4C0C4
:1009F00008F03FC0833671F3843609F07BC02FEFD7
:100A00006801F2E0CF0ED11CF8010081118117FFBF
:100A100008C01195019511098DE22D830E944A03AA
:100A20002D81A801110F660B770B43C0843471F53B
:100A30002FEF6801F4E0CF0ED11CF8014081518105
:100A40006281738177FF35C07095609550954195AF
:100A50005F4F6F4F7F4F8DE22D8349835A836B83A6
:100A60007C830E944A037C816B815A8149812D815C
:100A700020C0853701F52FEF6801F2E0CF0ED11CC1
:100A8000F8014081518160E070E013C0853408F4C2
:100A900074C0833509F45EC0853509F04BC02FEF73
:100AA0006801F4E0CF0ED11CF801408151816281D0
:100AB00073818AE01CC0883709F04AC02FEF6801B3
:100AC000F2E0CF0ED11CF8014081518160E070E06E
:100AD0000DC0883509F087CF2FEF6801F4E0CF0E05
:100AE000D11CF801408151816281738180E10E94B3
:100AF000BF0339C08236E1F52FEF6801F2E0CF0E77
:100B0000D11CF801608171812F3F09F420E180E060
:100B100090E00CC06801F4E0CF0ED11CF8016081B8
:100B20007181828193812F3F09F420E1422F0E943D
:100B3000760319C08634E1F46801F4E0CF0ED11CCD
:100B4000F80160817181828193810E9456040BC0FB
:100B5000833771F46801F2E0CF0ED11CF801808177
:100B600091810E94B303860103C00E944A0376016B
:100B70006701FFEFCF1ADF0AE2CE823409F027CFF8
:100B80006801F4E0CF0ED11CF8016081718182818F
:100B90009381CBCF853261F785E20E944A03E8CF8B
:100BA0000F900F900F900F900F90DF91CF911F91AA
:100BB0000F91FF90EF90DF90CF9008950E945E011B
:100BC0000E94640180ED0E94700187E00E94700124
:100BD00080E00E9470010C946A01CF93DF93EC01D6
:100BE0000E94640180ED0E94700180E00E9470010B
:100BF00088810E94700189810E9470018A810E940F
:100C000070018B810E9470018C810E9470018D8126
:100C10000E9470018E810E947001DF91CF910C942F
:100C20006A01CF93DF93EC010E94640180ED0E9482
:100C3000700180E00E9470010E946A010E946401BC
:100C400081ED0E94700181E00E947701888381E03C
:100C50000E947701898381E00E9477018A8381E085
:100C60000E9477018B8381E00E9477018C8381E071
:100C70000E9477018D8380E00E9477018E83DF914F
:100C8000CF910C946A01CF93DF93CDB7DEB727974E
:100C90000FB6F894DEBF0FBECDBF8FE08F938EE00E
:100CA0008F938DE0882E9CE0A92ECC24CA94EE244C
:100CB000EA940FEF2FEF4AE069E088E00E944F02CC
:100CC00060E182E00E94EF020E94DE0580E18B83FA
:100CD00080E48A83198281E08D838E8386E18F830D
:100CE00085E08C83CE0101960E94ED050F900F9058
:100CF00004E610E0CE0101960E94110680E00E94F9
:100D0000D9028F811F928F938E811F928F938D8135
:100D10001F928F9389811F928F938A811F928F9345
:100D20008B811F928F931F930F930E948D040FB698
:100D3000F894DEBF0FBECDBFDDCF5058BB27AA272A
:100D40000E94B5060C948D070E947F0738F00E9420
:100D5000860720F039F49F3F19F426F40C947C07A1
:100D60000EF4E095E7FB0C947607E92F0E949E07AE
:100D700058F3BA17620773078407950720F079F4D0
:100D8000A6F50C94C0070EF4E0950B2EBA2FA02DFB
:100D90000B01B90190010C01CA01A0011124FF2728
:100DA000591B99F0593F50F4503E68F11A16F04023
:100DB000A22F232F342F4427585FF3CF4695379522
:100DC0002795A795F0405395C9F77EF41F16BA0BE7
:100DD000620B730B840BBAF09150A1F0FF0FBB1F95
:100DE000661F771F881FC2F70EC0BA0F621F731FDE
:100DF000841F48F4879577956795B795F7959E3F3B
:100E000008F0B0CF9395880F08F09927EE0F9795CB
:100E1000879508950E94A60788F09F5798F0B92FEC
:100E20009927B751B0F0E1F0660F771F881F991F1F
:100E30001AF0BA95C9F714C0B13091F00E94C007FA
:100E4000B1E008950C94C007672F782F8827B85F0A
:100E500039F0B93FCCF3869577956795B395D9F777
:100E60003EF490958095709561957F4F8F4F9F4F81
:100E70000895E89409C097FB3EF49095809570958D
:100E800061957F4F8F4F9F4F9923A9F0F92F96E9D6
:100E9000BB279395F695879577956795B795F1114B
:100EA000F8CFFAF4BB0F11F460FF1BC06F5F7F4FE8
:100EB0008F4F9F4F16C0882311F096E911C07723FA
:100EC00021F09EE8872F762F05C0662371F096E803
:100ED000862F70E060E02AF09A95660F771F881FD2
:100EE000DAF7880F9695879597F9089597F99F6790
:100EF00080E870E060E008959FEF80EC08950024A2
:100F00000A941616170618060906089500240A946E
:100F100012161306140605060895092E0394000CF4
:100F200011F4882352F0BB0F40F4BF2B11F460FF83
:100F300004C06F5F7F4F8F4F9F4F089557FD9058AC
:100F4000440F551F59F05F3F71F04795880F97FB8D
:100F5000991F61F09F3F79F0879508951216130647
:100F60001406551FF2CF4695F1DF08C01616170676
:100F70001806991FF1CF86957105610508940895AB
:100F8000E894BB2766277727CB0197F908950E943D
:100F9000DA070C948D070E947F0738F00E948607BD
:100FA00020F0952311F00C9476070C947C07112403
:100FB0000C94C1070E949E0770F3959FC1F3950F93
:100FC00050E0551F629FF001729FBB27F00DB11DCD
:100FD000639FAA27F00DB11DAA1F649F6627B00D5D
:100FE000A11D661F829F2227B00DA11D621F739F46
:100FF000B00DA11D621F839FA00D611D221F749F54
:101000003327A00D611D231F849F600D211D822F9A
:10101000762F6A2F11249F5750409AF0F1F08823C1
:101020004AF0EE0FFF1FBB1F661F771F881F9150EE
:101030005040A9F79E3F510580F00C9476070C9420
:10104000C1075F3FE4F3983ED4F3869577956795A3
:10105000B795F795E7959F5FC1F7FE2B880F911D18
:101060009695879597F90895A1E21A2EAA1BBB1BA6
:10107000FD010DC0AA1FBB1FEE1FFF1FA217B30764
:10108000E407F50720F0A21BB30BE40BF50B661F7A
:10109000771F881F991F1A9469F76095709580953E
:1010A00090959B01AC01BD01CF010895F894FFCF4D
:1010B00080C090D074696D653A2532783A253278CF
:1010C0003A25327820200A446174653A2532782F17
:0810D0002532782F253278004B
:00000001FF
