S01E00003035632D4C63645F346269745F5363726F6C6C696E672E7372656320
S11300000C942A000C9447000C9447000C9447006D
S11300100C9447000C9447000C9447000C94470040
S11300200C9447000C9447000C9447000C94470030
S11300300C9447000C9447000C9447000C94470020
S11300400C9447000C9447000C9447000C94470010
S11300500C94470011241FBECFE5D8E0DEBFCDBF0E
S113006010E0A0E6B0E0EEE6F7E002C005900D92E5
S1130070AC39B107D9F720E0ACE9B0E001C01D927A
S1130080AC3AB207E1F70E9496030C94B5030C94C2
S11300900000009731F025E02A95F1F70000019760
S11300A0F8CF0895009741F0EFE9FFE03197F1F7B9
S11300B000C000000197F6CF0895982F9770869599
S11300C086958695813001F130F08230B1F183302C
S11300D009F44CC008954AB321E030E0662349F0A6
S11300E0B90102C0660F771F9A95E2F7CB01842B02
S11300F009C0B90102C0660F771F9A95E2F7CB01D8
S1130100809584238ABB089547B321E030E06623B9
S113011049F0B90102C0660F771F9A95E2F7CB0147
S1130120842B09C0B90102C0660F771F9A95E2F7C4
S1130130CB018095842387BB089544B321E030E04C
S1130140662349F0B90102C0660F771F9A95E2F75A
S1130150CB01842B09C0B90102C0660F771F9A95A1
S1130160E2F7CB018095842384BB089541B321E059
S113017030E0662349F0B90102C0660F771F9A95F3
S1130180E2F7CB01842B09C0B90102C0660F771FC7
S11301909A95E2F7CB018095842381BB0895982F2B
S11301A09770869586958695813001F130F082307E
S11301B0B1F1833009F44CC008954BB321E030E031
S11301C0662349F0B90102C0660F771F9A95E2F7DA
S11301D0CB01842B09C0B90102C0660F771F9A9521
S11301E0E2F7CB01809584238BBB089548B321E0CB
S11301F030E0662349F0B90102C0660F771F9A9573
S1130200E2F7CB01842B09C0B90102C0660F771F46
S11302109A95E2F7CB018095842388BB089545B372
S113022021E030E0662349F0B90102C0660F771F70
S11302309A95E2F7CB01842B09C0B90102C0660F7D
S1130240771F9A95E2F7CB018095842385BB0895A7
S113025042B321E030E0662349F0B90102C0660FE1
S1130260771F9A95E2F7CB01842B09C0B90102C02C
S1130270660F771F9A95E2F7CB018095842382BBA2
S11302800895282F2770869586958695813049F0A4
S113029030F0823041F0833079F480B305C089B303
S11302A003C086B301C083B390E002C095958795DF
S11302B02A95E2F78170089580E008950F931F93C3
S11302C0CF93C82F84FB662760F90CE910E0F8018E
S11302D082850E94CF00C5FB662760F9F8018385FB
S11302E00E94CF00C6FB662760F9F80184850E944E
S11302F0CF006C2F661F6627661FF8018585CF9196
S11303001F910F910C94CF00CF93DF93CCE9D0E0F1
S113031060E08B810E94CF0060E08C810E94CF005E
S113032061E08D810E94CF008AE090E00E94490044
S113033060E08D81DF91CF910C94CF000F931F93D8
S1130340CF93C82F682F61700CE910E0F801868103
S11303500E94CF00C1FB662760F9F80187810E94E3
S1130360CF00C2FB662760F9F80180850E94CF00A8
S1130370C3FB662760F9F8018185CF911F910F9126
S11303800C94CF00CF93DF93CCE9D0E061E08B8174
S11303900E94CF0060E08C810E94CF0061E08D81DB
S11303A00E94CF008AE090E00E94490060E08D81C5
S11303B0DF91CF910C94CF00CF938091A0008F3F19
S11303C009F444C060E08091A9000E945D0060E0EF
S11303D080919F000E94CF0061E08091A0000E9464
S11303E0CF0060E08091A1000E94CF008AE090E0FD
S11303F00E94490061E08091A1000E94CF008AE040
S113040090E00E9449008091A9000E944101C82FF8
S113041080919E00843091F460E08091A1000E945C
S1130420CF008AE090E00E94490061E08091A10041
S11304300E94CF008AE090E00E944900C111D1CF10
S113044061E08091A900CF910C945D0081E090E07F
S1130450CF910C9452008F929F92AF92BF92CF9201
S1130460DF92EF92FF920F931F93CF93DF93CDB759
S1130470DEB7982EB62ED42EFF84188980939F0061
S11304806093A0004093A1002093A2000093A300D6
S1130490E092A400C092A500A092A6008092A700BA
S11304A0F092A8001093A9002F3F39F00F3F29F0D4
S11304B08FEFE81611F0C81204C084E080939E0008
S11304C013C088E080939E0061E0822F0E945D004B
S11304D061E0802F0E945D0061E08E2D0E945D002E
S11304E061E08C2D0E945D0061E0892D0E945D0019
S11304F061E08B2D0E945D0061E08D2D0E945D0006
S113050061E08A2D0E945D0061E0882D0E945D00FB
S113051061E08F2D0E945D0061E0812FDF91CF911A
S11305201F910F91FF90EF90DF90CF90BF90AF900D
S11305309F908F900C945D00CF93C82F0E94DC0194
S113054080919E00883021F48C2F0E949E0107C068
S11305508C2F0E945E010E948401C295C07F8C2F63
S11305600E945E01CF910C94840190919C008917A4
S113057058F41092AA008093AB00E82FF0E0E05A00
S1130580FF4F80810C949C02089581E00E949C029C
S113059080E00C94B50260939D0080939C008330AE
S11305A040F06F7080E9860F80936200605360931F
S11305B0630084E690E00E94520080919E0088309F
S11305C011F488E327C0843039F580E30E945E018A
S11305D00E94840184E690E00E94520080E30E941D
S11305E05E010E94840188EC90E00E94490080E34F
S11305F00E945E010E94840188EC90E00E94490000
S113060080E20E945E010E94840188EC90E00E94D6
S1130610490088E20E949C028EE00E949C020C9495
S1130620C5028091AB008F5F8093AB001092AA004B
S113063090919C00891710F01092AB00E091AB00F0
S1130640F0E0E05AFF4F80810C949C02CF93C82FB6
S11306509091AA0080919D00981760F4CA3051F0DF
S11306600E94DC0180919E00883049F48C2F0E9406
S11306709E010CC00E941103CA3091F0F1CF8C2F5F
S11306800E945E010E94C201C295C07F8C2F0E940D
S11306905E010E94C2018091AA008F5F8093AA002C
S11306A0CF910895CF92DF92FF920F931F93CF9330
S11306B0DF93F82E6B0180919C00F81608F0F12C62
S11306C08CE00E949C02D0E086010D0F111DF80100
S11306D08081882309F18F2D0E94B502C0E08091AA
S11306E09D00C81750F4F801EC0FF11D8081882398
S11306F021F00E942603CF5FF2CF80919D00C8179E
S113070028F480E20E942603CF5FF7CF88EC90E0C4
S11307100E945200DF5FD8CF8EE0DF91CF911F910E
S11307200F91FF90DF90CF900C949C028FE08F93F9
S11307308EE08F938DE0882E9CE0A92ECC24CA9461
S1130740EE24EA940FEF2FEF4AE069E088E00E947C
S11307502B0260E182E00E94CB020F900F9064E6CE
S111076070E080E00E945203FACFF894FFCFBD
S113076E80C090D0202020202020202057656C634C
S113077E6F6D6520746F204156522070726F6772D0
S113078E616D6D696E67206279204578706C6F7249
S10F079E6520456D62656464656420009C
S9030000FC
