S01800003031622D4C65645570436F756E7465722E7372656362
S11300000C942A000C9434000C9434000C943400A6
S11300100C9434000C9434000C9434000C9434008C
S11300200C9434000C9434000C9434000C9434007C
S11300300C9434000C9434000C9434000C9434006C
S11300400C9434000C9434000C9434000C9434005C
S11300500C94340011241FBECFE5D8E0DEBFCDBF21
S11300600E9436000C944B000C9400008FEF8ABB66
S113007087BB84BB81BB80E08BBB88BB85BB82BB59
S11300802FEF39E698E1215030409040E1F700C06D
S10D009000008F5FF1CFF894FFCF5A
S9030000FC
