S01B00003036642D554152545F54785F4E756D626572732E7372656370
S11300000C942A000C943F000C943F000C943F0085
S11300100C943F000C943F000C943F000C943F0060
S11300200C943F000C943F000C943F000C943F0050
S11300300C943F000C943F000C943F000C943F0040
S11300400C943F000C943F000C943F000C943F0030
S11300500C943F0011241FBECFE5D8E0DEBFCDBF16
S113006010E0A0E6B0E0E0E1F6E002C005900D92F9
S1130070A038B107D9F70E949A020C9406030C9495
S11300800000009741F0EFE9FFE03197F1F700C07D
S113009000000197F6CF0895CF92DF92EF92FF927E
S11300A06B017C01DC01CB0180569940A109B109A7
S11300B0813A984BA140B10598F4A8EFBFEFA7018E
S11300C096010E94E7027C5D8B409F4FE4E0220F83
S11300D0331F441F551FEA95D1F70E94C20202C084
S11300E027E630E029B930BDFF90EF90DF90CF9044
S11300F0089528E12AB926E820BD1BB80C944C00C9
S11301005D9BFECF8CB90895AF92BF92CF92DF92E0
S1130110EF92FF920F931F93CF93DF931F92CDB76C
S1130120DEB76B017C01AA24A394B12C4423E9F02B
S11301308FEF840F850102C0000F111F8A95E2F72B
S1130140012E000C220B330B0C211D212E213F21EB
S113015081E0012B022B032B09F480E0805D4983AD
S11301600E94800049814150E1CF0F90DF91CF91EF
S11301701F910F91FF90EF90DF90CF90BF90AF90C1
S11301800895CF93DF93EC018991882319F00E949D
S11301908000FACFDF91CF9108954F925F926F92D2
S11301A07F92BF92CF92DF92EF92FF920F931F93B1
S11301B0CF93DF93CDB7DEB72A970FB6F894DEBF9F
S11301C00FBECDBFB82ECB01BA01022F22E0B2126E
S11301D016C0402F2A960FB6F894DEBF0FBECDBFCF
S11301E0DF91CF911F910F91FF90EF90DF90CF900F
S11301F0BF907F906F905F904F900C948400611536
S113020071058105910549F0FE0131966F017F0169
S11302104B2C512C612C712C1EC010E01017A1F135
S11302201A3091F180E30E9480001F5FF7CF6115BF
S1130230710581059105A1F0162FA30192010E9479
S1130240C202CA01B901B29E10191124F701108328
S1130250FFEFEF1AFF0A1E2D1C19101740F30FC0F1
S11302600B3068F4F7011082F3CFFE01E10FF11DAA
S113027080818A3038F0895C0E948000115011110D
S1130280F4CF02C0805DF8CF2A960FB6F894DEBF93
S11302900FBECDBFDF91CF911F910F91FF90EF90D3
S11302A0DF90CF90BF907F906F905F904F900895B4
S11302B0CF92DF92EF92FF920F931F93CF93DF932E
S11302C000D000D01F92CDB7DEB7FE017096C1906A
S11302D0D1908F01F6018081882309F41DC18532F4
S11302E009F002C176018FEFE81AF80AF60181815C
S11302F090ED980F9A3008F0B2C020E090ED980F7E
S11303009A3058F4FAE02F9F900D1124292F8FEF83
S1130310E81AF80AF7018081F1CF883509F4A3C0FF
S1130320A0F4833429F138F4853209F4D9C0823435
S113033009F4B7C0DCC0833509F4C5C0853509F4B8
S113034076C0843409F0D3C039C08436E9F020F48F
S1130350823609F499C0DCC0853709F455C0883762
S113036009F473C0AEC0893560F4833409F056C013
S11303706801F2E0CF0ED11CF80180810E94800058
S1130380ABC08436D9F52FEF6801F2E0CF0ED11C53
S1130390F8010081118117FF08C011950195110919
S11303A08DE22D830E9480002D81A801110F660B20
S11303B0770B46C0843409F09AC02FEF6801F4E04B
S11303C0CF0ED11CF801408151816281738177FF86
S11303D037C070956095509541955F4F6F4F7F4F33
S11303E08DE22D8349835A836B837C830E94800032
S11303F07C816B815A8149812D8122C0853608F424
S11304003FC08537F9F42FEF6801F2E0CF0ED11C1D
S1130410F8014081518160E070E012C0843408F436
S11304205DC0833509F44FC0853521F62FEF68018F
S1130430F4E0CF0ED11CF8014081518162817381B7
S11304408AE01BC08837E9F52FEF6801F2E0CF0E90
S1130450D11CF8014081518160E070E00DC0883505
S113046009F081CF2FEF6801F4E0CF0ED11CF80121
S1130470408151816281738180E10E94CD002CC052
S1130480823609F045C02FEF6801F2E0CF0ED11C8F
S1130490F801608171812F3F09F420E180E090E050
S11304A00CC06801F4E0CF0ED11CF80160817181A9
S11304B0828193812F3F09F420E2422F0E9484001D
S11304C00BC08337A1F46801F2E0CF0ED11CF80110
S11304D0808191810E94C100860109C0853261F446
S11304E085E20E94800003C00E94800076016701BB
S11304F0FFEFCF1ADF0AEECE8234C9F76801F4E0C9
S1130500CF0ED11CF8016081718182819381D4CF97
S1130510833609F42DCFEBCF0F900F900F900F90EF
S11305200F90DF91CF911F910F91FF90EF90DF908B
S1130530CF90089560E875E280E090E00E94790031
S1130540C0E0D0E000E610E0DF93CF93DF93CF93D9
S1130550DF93CF931F930F930E94580184E690E09A
S11305600E94410021968DB79EB708960FB6F89465
S11305709EBF0FBE8DBFCF3FD10531F32CF3C0E03A
S1130580D0E0E2CFA1E21A2EAA1BBB1BFD010DC0D5
S1130590AA1FBB1FEE1FFF1FA217B307E407F5072F
S11305A020F0A21BB30BE40BF50B661F771F881F0B
S11305B0991F1A9469F760957095809590959B01A1
S11305C0AC01BD01CF010895B7FF0C94EC020E9469
S11305D0EC02821B930B08950E94F702A59F900DD5
S11305E0B49F900DA49F800D911D11240895A29F86
S11305F0B001B39FC001A39F700D811D1124911DF3
S1130600B29F700D811D1124911D0895F894FFCFA0
S11306106865783A307825327820202062696E3A0D
S11306202538622020206465633A2533640A0D006E
S9030000FC
