:100000000C942A000C94BA050C94D1050C9447006A
:100010000C9447000C9447000C9447000C94470044
:100020000C9447000C9447000C9447000C94470034
:100030000C9447000C9447000C9447000C94470024
:100040000C9447000C9447000C9447000C94470014
:100050000C94470011241FBECFE5D8E0DEBFCDBF12
:1000600010E0A0E6B0E0ECECFFE002C005900D92DD
:10007000AA37B107D9F720E0AAE7B0E001C01D9286
:10008000AE38B207E1F70E94E8050C94E4070C943F
:100090000000009731F025E02A95F1F70000019764
:1000A000F8CF0895009741F0EFE9FFE03197F1F7BD
:1000B00000C000000197F6CF0895982F977086959D
:1000C00086958695813001F130F08230B1F1833030
:1000D00009F44CC008954AB321E030E0662349F0AA
:1000E000B90102C0660F771F9A95E2F7CB01842B06
:1000F00009C0B90102C0660F771F9A95E2F7CB01DC
:10010000809584238ABB089547B321E030E06623BD
:1001100049F0B90102C0660F771F9A95E2F7CB014B
:10012000842B09C0B90102C0660F771F9A95E2F7C8
:10013000CB018095842387BB089544B321E030E050
:10014000662349F0B90102C0660F771F9A95E2F75E
:10015000CB01842B09C0B90102C0660F771F9A95A5
:10016000E2F7CB018095842384BB089541B321E05D
:1001700030E0662349F0B90102C0660F771F9A95F7
:10018000E2F7CB01842B09C0B90102C0660F771FCB
:100190009A95E2F7CB018095842381BB0895982F2F
:1001A0009770869586958695813001F130F0823082
:1001B000B1F1833009F44CC008954BB321E030E035
:1001C000662349F0B90102C0660F771F9A95E2F7DE
:1001D000CB01842B09C0B90102C0660F771F9A9525
:1001E000E2F7CB01809584238BBB089548B321E0CF
:1001F00030E0662349F0B90102C0660F771F9A9577
:10020000E2F7CB01842B09C0B90102C0660F771F4A
:100210009A95E2F7CB018095842388BB089545B376
:1002200021E030E0662349F0B90102C0660F771F74
:100230009A95E2F7CB01842B09C0B90102C0660F81
:10024000771F9A95E2F7CB018095842385BB0895AB
:1002500042B321E030E0662349F0B90102C0660FE5
:10026000771F9A95E2F7CB01842B09C0B90102C030
:10027000660F771F9A95E2F7CB018095842382BBA6
:100280000895282F2770869586958695813049F0A8
:1002900030F0823041F0833079F480B305C089B307
:1002A00003C086B301C083B390E002C095958795E3
:1002B0002A95E2F78170089580E008950F931F93C7
:1002C000CF93C82F84FB662760F90AE710E0F80196
:1002D00082850E94CF00C5FB662760F9F8018385FF
:1002E0000E94CF00C6FB662760F9F80184850E9452
:1002F000CF006C2F661F6627661FF8018585CF919A
:100300001F910F910C94CF00CF93DF93CAE7D0E0F9
:1003100060E08B810E94CF0060E08C810E94CF0062
:1003200061E08D810E94CF008AE090E00E94490048
:1003300060E08D81DF91CF910C94CF000F931F93DC
:10034000CF93C82F682F61700AE710E0F80186810B
:100350000E94CF00C1FB662760F9F80187810E94E7
:10036000CF00C2FB662760F9F80180850E94CF00AC
:10037000C3FB662760F9F8018185CF911F910F912A
:100380000C94CF00CF93DF93CAE7D0E061E08B817C
:100390000E94CF0060E08C810E94CF0061E08D81DF
:1003A0000E94CF008AE090E00E94490060E08D81C9
:1003B000DF91CF910C94CF00CF9380917E008F3F3F
:1003C00009F444C060E0809187000E945D0060E015
:1003D00080917D000E94CF0061E080917E000E94AC
:1003E000CF0060E080917F000E94CF008AE090E023
:1003F0000E94490061E080917F000E94CF008AE066
:1004000090E00E944900809187000E944101C82F1E
:1004100080917C00843091F460E080917F000E94A4
:10042000CF008AE090E00E94490061E080917F0067
:100430000E94CF008AE090E00E944900C111D1CF14
:1004400061E080918700CF910C945D0081E090E0A5
:10045000CF910C9452008F929F92AF92BF92CF9205
:10046000DF92EF92FF920F931F93CF93DF93CDB75D
:10047000DEB7982EB62ED42EFF84188980937D0087
:1004800060937E0040937F00209380000093810062
:10049000E0928200C0928300A09284008092850046
:1004A000F0928600109387002F3F39F00F3F29F01C
:1004B0008FEFE81611F0C81204C084E080937C002E
:1004C00013C088E080937C0061E0822F0E945D0071
:1004D00061E0802F0E945D0061E08E2D0E945D0032
:1004E00061E08C2D0E945D0061E0892D0E945D001D
:1004F00061E08B2D0E945D0061E08D2D0E945D000A
:1005000061E08A2D0E945D0061E0882D0E945D00FF
:1005100061E08F2D0E945D0061E0812FDF91CF911E
:100520001F910F91FF90EF90DF90CF90BF90AF9011
:100530009F908F900C945D00CF93C82F0E94DC0198
:1005400080917C00883021F48C2F0E949E0107C08E
:100550008C2F0E945E010E948401C295C07F8C2F67
:100560000E945E01CF910C94840190917A008917CA
:1005700058F41092880080938900E82FF0E0E05A48
:10058000FF4F80810C949C02089581E00E949C02A0
:1005900080E00C94B50260937B0080937A008330F6
:1005A00040F06F7080E9860F809362006053609323
:1005B000630084E690E00E94520080917C008830C5
:1005C00011F488E327C0843039F580E30E945E018E
:1005D0000E94840184E690E00E94520080E30E9421
:1005E0005E010E94840188EC90E00E94490080E353
:1005F0000E945E010E94840188EC90E00E94490004
:1006000080E20E945E010E94840188EC90E00E94DA
:10061000490088E20E949C028EE00E949C020C9499
:10062000C502809189008F5F8093890010928800B5
:1006300090917A00891710F010928900E09189005A
:10064000F0E0E05AFF4F80810C949C02CF93C82FBA
:100650009091880080917B00981760F4CA3051F027
:100660000E94DC0180917C00883049F48C2F0E942C
:100670009E010CC00E941103CA3091F0F1CF8C2F63
:100680000E945E010E94C201C295C07F8C2F0E9411
:100690005E010E94C201809188008F5F8093880074
:1006A000CF910895AF92BF92CF92DF92EF92FF92D7
:1006B0000F931F93CF93DF931F92CDB7DEB76B01DC
:1006C0007C01AA24A394B12C4423E9F08FEF840F7A
:1006D000850102C0000F111F8A95E2F7012E000C60
:1006E000220B330B0C211D212E213F2181E0012BF8
:1006F000022B032B09F480E0805D49830E942603CE
:1007000049814150E1CF0F90DF91CF911F910F911F
:10071000FF90EF90DF90CF90BF90AF900895CF9370
:10072000DF93EC018991882319F00E942603FACF08
:10073000DF91CF9108954F925F926F927F92BF9217
:10074000CF92DF92EF92FF920F931F93CF93DF939D
:10075000CDB7DEB72A970FB6F894DEBF0FBECDBF78
:10076000B82ECB01BA01022F22E0B21216C0402FE0
:100770002A960FB6F894DEBF0FBECDBFDF91CF91A2
:100780001F910F91FF90EF90DF90CF90BF907F90DF
:100790006F905F904F900C94520361157105810525
:1007A000910549F0FE0131966F017F014B2C512CD0
:1007B000612C712C2AC080E32A960FB6F894DEBF14
:1007C0000FBECDBFDF91CF911F910F91FF90EF90A2
:1007D000DF90CF90BF907F906F905F904F900C9480
:1007E00026036115710581059105A1F0162FA3015E
:1007F00092010E94C207CA01B901B29E10191124C8
:10080000F7011083FFEFEF1AFF0A1E2D1C191017B6
:1008100040F30FC00B3068F4F7011082F3CFFE01F4
:10082000E10FF11D80818A3038F0895C0E94260337
:1008300011501111F4CF02C0805DF8CF2A960FB687
:10084000F894DEBF0FBECDBFDF91CF911F910F9106
:10085000FF90EF90DF90CF90BF907F906F905F9070
:100860004F9008958F929F92AF92BF92CF92DF9256
:10087000EF92FF926B017C010E9498064B015C0194
:100880002FEFAB01BC018AE00E949B038EE20E9425
:100890002603C501B4010E94C7069B01AC01C70134
:1008A000B6010E942B0620E034E244E759E40E949E
:1008B00055070E949806AB01BC012FEF8AE0FF901C
:1008C000EF90DF90CF90BF90AF909F908F900C945F
:1008D0009B03CF92DF92EF92FF920F931F93CF93E0
:1008E000DF9300D000D01F92CDB7DEB7FE01709627
:1008F000C190D1908F01F6018081882309F42CC129
:10090000853209F00EC176018FEFE81AF80AF60178
:10091000818190ED980F9A3008F0B7C020E090EDFB
:10092000980F9A3058F4FAE02F9F900D1124292F38
:100930008FEFE81AF80AF7018081F1CF883509F4C2
:10094000A8C070F4843409F450C018F48234D9F487
:10095000BDC0833509F4DAC0853509F47DC0C6C051
:10096000863609F4C5C040F4833681F0843621F11F
:10097000823609F0D9C09DC0853709F459C088373F
:1009800009F479C0C1C0833408F4E0C06801F2E022
:10099000CF0ED11CF80180810E942603C0C089358A
:1009A00008F1863609F4A4C008F03FC0833671F31D
:1009B000843609F07BC02FEF6801F2E0CF0ED11C26
:1009C000F8010081118117FF08C0119501951109E7
:1009D0008DE22D830E9426032D81A801110F660B45
:1009E000770B43C0843471F52FEF6801F4E0CF0E2C
:1009F000D11CF801408151816281738177FF35C03C
:100A000070956095509541955F4F6F4F7F4F8DE288
:100A10002D8349835A836B837C830E9426037C81C8
:100A20006B815A8149812D8120C0853701F52FEFD7
:100A30006801F2E0CF0ED11CF8014081518160E0E5
:100A400070E013C0853408F474C0833509F45EC0C7
:100A5000853509F04BC02FEF6801F4E0CF0ED11CB3
:100A6000F80140815181628173818AE01CC088371E
:100A700009F04AC02FEF6801F2E0CF0ED11CF80157
:100A80004081518160E070E00DC0883509F087CF6A
:100A90002FEF6801F4E0CF0ED11CF80140815181A5
:100AA0006281738180E10E949B0339C08236E1F547
:100AB0002FEF6801F2E0CF0ED11CF8016081718147
:100AC0002F3F09F420E180E090E00CC06801F4E0E1
:100AD000CF0ED11CF80160817181828193812F3FFB
:100AE00009F420E1422F0E94520319C08634E1F438
:100AF0006801F4E0CF0ED11CF80160817181828120
:100B000093810E9432040BC0833771F46801F2E0D4
:100B1000CF0ED11CF801808191810E948F03860144
:100B200003C00E94260376016701FFEFCF1ADF0A98
:100B3000E2CE823409F027CF6801F4E0CF0ED11C59
:100B4000F8016081718182819381CBCF853261F719
:100B500085E20E942603E8CF0F900F900F900F9030
:100B60000F90DF91CF911F910F91FF90EF90DF9049
:100B7000CF9008951F920F920FB60F9211248F936A
:100B80009F9380918A0090918B00019690938B00A7
:100B900080938A009F918F910F900FBE0F901F90AE
:100BA00018951F920F920FB60F9211248F939F9357
:100BB00080918C0090918D00019690938D00809390
:100BC0008C009F918F910F900FBE0F901F901895E2
:100BD0008FEF84BB80EE81BB8FE08F938EE08F938D
:100BE0008DE0882E9CE0A92ECC24CA94EE24EA94B1
:100BF0000FEF2FEF4AE069E088E00E942B0260E1EE
:100C000082E00E94CB0280EC8BBF88E085BF7894A5
:100C10000F900F9004E610E0CFE6D0E080918A00BC
:100C200090918B009F938F931F930F930E94690461
:100C300080918C0090918D009F938F93DF93CF9341
:100C40000E9469048DB79EB708960FB6F8949EBFB0
:100C50000FBE8DBFE3CF5058BB27AA270E94430683
:100C60000C941B070E940D0738F00E94140720F017
:100C700039F49F3F19F426F40C940A070EF4E0951A
:100C8000E7FB0C940407E92F0E942C0758F3BA17CE
:100C9000620773078407950720F079F4A6F50C9492
:100CA0004E070EF4E0950B2EBA2FA02D0B01B901C3
:100CB00090010C01CA01A0011124FF27591B99F0D2
:100CC000593F50F4503E68F11A16F040A22F232FDE
:100CD000342F4427585FF3CF469537952795A7952E
:100CE000F0405395C9F77EF41F16BA0B620B730BD5
:100CF000840BBAF09150A1F0FF0FBB1F661F771F46
:100D0000881FC2F70EC0BA0F621F731F841F48F4FA
:100D1000879577956795B795F7959E3F08F0B0CF83
:100D20009395880F08F09927EE0F9795879508956A
:100D30000E94340788F09F5798F0B92F9927B75130
:100D4000B0F0E1F0660F771F881F991F1AF0BA956F
:100D5000C9F714C0B13091F00E944E07B1E0089578
:100D60000C944E07672F782F8827B85F39F0B93F6A
:100D7000CCF3869577956795B395D9F73EF4909522
:100D80008095709561957F4F8F4F9F4F0895E894A0
:100D900009C097FB3EF490958095709561957F4FC3
:100DA0008F4F9F4F9923A9F0F92F96E9BB27939571
:100DB000F695879577956795B795F111F8CFFAF481
:100DC000BB0F11F460FF1BC06F5F7F4F8F4F9F4FB2
:100DD00016C0882311F096E911C0772321F09EE810
:100DE000872F762F05C0662371F096E8862F70E076
:100DF00060E02AF09A95660F771F881FDAF7880F50
:100E00009695879597F9089597F99F6780E870E020
:100E100060E008959FEF80EC089500240A94161670
:100E2000170618060906089500240A9412161306D8
:100E3000140605060895092E0394000C11F4882366
:100E400052F0BB0F40F4BF2B11F460FF04C06F5F82
:100E50007F4F8F4F9F4F089557FD9058440F551F58
:100E600059F05F3F71F04795880F97FB991F61F02C
:100E70009F3F79F087950895121613061406551FA3
:100E8000F2CF4695F1DF08C0161617061806991F0F
:100E9000F1CF86957105610508940895E894BB2704
:100EA00066277727CB0197F908950E9468070C946D
:100EB0001B070E940D0738F00E94140720F09523AD
:100EC00011F00C9404070C940A0711240C944F079A
:100ED0000E942C0770F3959FC1F3950F50E0551FAA
:100EE000629FF001729FBB27F00DB11D639FAA277F
:100EF000F00DB11DAA1F649F6627B00DA11D661FCE
:100F0000829F2227B00DA11D621F739FB00DA11DEE
:100F1000621F839FA00D611D221F749F3327A00DA8
:100F2000611D231F849F600D211D822F762F6A2F44
:100F300011249F5750409AF0F1F088234AF0EE0FA9
:100F4000FF1FBB1F661F771F881F91505040A9F7D6
:100F50009E3F510580F00C9404070C944F075F3FAF
:100F6000E4F3983ED4F3869577956795B795F79512
:100F7000E7959F5FC1F7FE2B880F911D969587958A
:100F800097F90895A1E21A2EAA1BBB1BFD010DC003
:100F9000AA1FBB1FEE1FFF1FA217B307E407F50729
:100FA00020F0A21BB30BE40BF50B661F771F881F05
:100FB000991F1A9469F760957095809590959B019B
:0C0FC000AC01BD01CF010895F894FFCFF3
:100FCC0080C090D045494E54303A2534750A0045BE
:0A0FDC00494E54313A2534750A00DD
:00000001FF
