S0210000556C747261415652436F6D706C657465426F617264546573742E7372656351
S11300000C9432000C944F000C944F000C944F004D
S11300100C944F000C944F000C944F000C944F0020
S11300200C944F000C944F000C944F000C944F0010
S11300300C944F000C944F000C944F000C944F0000
S11300400C944F000C944F000C944F000C944F00F0
S11300500C944F007D097F0981098309850987096B
S113006089098B0911241FBECFE5D8E0DEBFCDBFBF
S113007013E0A0E6B0E0E0EEF6E102C005900D92D8
S1130080A23FB107D9F724E0A2EFB3E001C01D926B
S1130090AB30B207E1F70E9461090C946E0B0C942B
S11300A0000081E886B917B8089587B98AE090E01E
S11300B00E946000369A349BFECF84B195B10895B6
S11300C0009731F025E02A95F1F700000197F8CF69
S11300D00895009741F0EFE9FFE03197F1F700C090
S11300E000000197F6CF0895E199FECF9FBB8EBB28
S11300F06DBBE29AE19A0895E199FECF9FBB8EBB56
S1130100E09A8DB30895982F977086958695869575
S1130110813001F130F08230B1F1833009F44CC008
S113012008954AB321E030E0662349F0B90102C0E2
S1130130660F771F9A95E2F7CB01842B09C0B901AA
S113014002C0660F771F9A95E2F7CB01809584234E
S11301508ABB089547B321E030E0662349F0B90132
S113016002C0660F771F9A95E2F7CB01842B09C072
S1130170B90102C0660F771F9A95E2F7CB0180950B
S1130180842387BB089544B321E030E0662349F01B
S1130190B90102C0660F771F9A95E2F7CB01842B51
S11301A009C0B90102C0660F771F9A95E2F7CB0127
S11301B08095842384BB089541B321E030E0662315
S11301C049F0B90102C0660F771F9A95E2F7CB0197
S11301D0842B09C0B90102C0660F771F9A95E2F714
S11301E0CB018095842381BB0895982F97708695C1
S11301F086958695813001F130F08230B1F18330FB
S113020009F44CC008954BB321E030E0662349F073
S1130210B90102C0660F771F9A95E2F7CB01842BD0
S113022009C0B90102C0660F771F9A95E2F7CB01A6
S1130230809584238BBB089548B321E030E0662386
S113024049F0B90102C0660F771F9A95E2F7CB0116
S1130250842B09C0B90102C0660F771F9A95E2F793
S1130260CB018095842388BB089545B321E030E019
S1130270662349F0B90102C0660F771F9A95E2F729
S1130280CB01842B09C0B90102C0660F771F9A9570
S1130290E2F7CB018095842385BB089542B321E026
S11302A030E0662349F0B90102C0660F771F9A95C2
S11302B0E2F7CB01842B09C0B90102C0660F771F96
S11302C09A95E2F7CB018095842382BB0895282F69
S11302D02770869586958695813049F030F0823076
S11302E041F0833079F480B305C089B303C086B389
S11302F001C083B390E002C0959587952A95E2F7F3
S11303008170089580E0089511B886E480B984E08E
S113031086BF089584EA86BF06B607FEFDCF08951A
S113032084E986BF84E690E00C94600083B984E895
S113033086BF06B607FEFDCF089520E4829FC00164
S11303401124846886BF06B607FEFDCF83B10895E5
S1130350AF92CF92EF920F931F93CF93DF9380933B
S1130360F6036093F7034093F8032093F903009393
S1130370F203E092F303C092F403A092F503C6EFF4
S1130380D3E01C2F1C5F61E089910E9483001C1341
S1130390FACFC2EFD3E01C2F1C5F60E089910E946A
S11303A083001C13FACFDF91CF911F910F91EF902F
S11303B0CF90AF900895AF92BF92CF92DF92EF9219
S11303C0FF920F931F93CF93DF9376EFE72E73E0A3
S11303D0F72EE70114E01E0D60E089910E94F500FC
S11303E01C13FACF82EF93E0D4E0D80FCD2F62EF45
S11303F0C62E63E0D62E01E0F60181916F010E94C2
S113040067010823DC11F8CF91F38AE090E00E94A1
S1130410600052EFC52E53E0D52E01E0F601819124
S11304206F010E9467010823CC11F8CF01F346EF56
S1130430C42E43E0D42E60E0F60181916F010E9446
S1130440F5001C11F8CF32EFC32E33E0D32EC1E0F8
S1130450F60181916F010E946701C823DC11F8CF76
S113046091F78AE090E00E94600022EFC22E23E020
S1130470D22EC1E0F60181916F010E946701C82369
S1130480DC11F8CF01F7C6EFD3E061E089910E9457
S1130490F5001C13FACF00E010E0570160E0F7010B
S11304A080810E94F50092EFC92E93E0D92EC0E01E
S11304B0D0E0F60181916F010E946701882399F0D1
S11304C02196C430D105A9F7FFEFEF1AFF0A61E0C6
S11304D0F50180810E94F5000F5F1F4F0430110564
S11304E0E1F688E709C0000F111F000F111FC00FAC
S11304F0D11FC05ADF4F8881DF91CF911F910F9197
S1130500FF90EF90DF90CF90BF90AF9008950F933E
S11305101F93CF93C82F84FB662760F90AEF13E07B
S1130520F80182850E94F500C5FB662760F9F80191
S113053083850E94F500C6FB662760F9F80184856F
S11305400E94F5006C2F661F6627661FF8018585DB
S1130550CF911F910F910C94F500CF93DF93CAEFC5
S1130560D3E060E08B810E94F50060E08C810E9402
S1130570F50061E08D810E94F5008AE090E00E9420
S1130580600060E08D81DF91CF910C94F5000F93B2
S11305901F93CF93C82F682F61700AEF13E0F801FF
S11305A086810E94F500C1FB662760F9F801878106
S11305B00E94F500C2FB662760F9F80180850E945D
S11305C0F500C3FB662760F9F8018185CF911F917F
S11305D00F910C94F500CF93DF93CAEFD3E061E061
S11305E08B810E94F50060E08C810E94F50061E03F
S11305F08D810E94F5008AE090E00E94600060E036
S11306008D81DF91CF910C94F500CF938091FE03FF
S11306108F3F09F444C060E0809107040E94830086
S113062060E08091FD030E94F50061E08091FE038B
S11306300E94F50060E08091FF030E94F5008AE0CB
S113064090E00E94600061E08091FF030E94F50049
S11306508AE090E00E946000809107040E94670194
S1130660C82F8091FC03843091F460E08091FF03F3
S11306700E94F5008AE090E00E94600061E08091B1
S1130680FF030E94F5008AE090E00E946000C1111F
S1130690D1CF61E080910704CF910C94830081E075
S11306A090E0CF910C9469008F929F92AF92BF9289
S11306B0CF92DF92EF92FF920F931F93CF93DF932A
S11306C0CDB7DEB7982EB62ED42EFF84188980932A
S11306D0FD036093FE034093FF0320930004009303
S11306E00104E0920204C0920304A09204048092E4
S11306F00504F0920604109307042F3F39F00F3FCE
S113070029F08FEFE81611F0C81204C084E080933A
S1130710FC0313C088E08093FC0361E0822F0E94F5
S1130720830061E0802F0E94830061E08E2D0E948F
S1130730830061E08C2D0E94830061E0892D0E947A
S1130740830061E08B2D0E94830061E08D2D0E9467
S1130750830061E08A2D0E94830061E0882D0E945D
S1130760830061E08F2D0E94830061E0812FDF917F
S1130770CF911F910F91FF90EF90DF90CF90BF909A
S1130780AF909F908F900C948300CF93C82F0E94BA
S113079005038091FC03883021F48C2F0E94C7024A
S11307A007C08C2F0E9487020E94AD02C295C07FB1
S11307B08C2F0E948702CF910C94AD029091FA0382
S11307C0891758F41092080480930904E82FF0E084
S11307D0E059FF4F80810C94C503089581E00E9485
S11307E0C50380E00C94DE036093FB038093FA035B
S11307F0833040F06F7080E9860F809372006053FD
S11308006093730084E690E00E9469008091FC0389
S1130810883011F488E327C0843039F580E30E94DE
S113082087020E94AD0284E690E00E94690080E3A2
S11308300E9487020E94AD0288EC90E00E94600052
S113084080E30E9487020E94AD0288EC90E00E943F
S1130850600080E20E9487020E94AD0288EC90E072
S11308600E94600088E20E94C5038EE00E94C503D6
S11308700C94EE03809109048F5F80930904109215
S113088008049091FA03891710F010920904E0917A
S11308900904F0E0E059FF4F80810C94C503CF9325
S11308A0C82F909108048091FB03981760F4CA3014
S11308B051F00E9405038091FC03883049F48C2F89
S11308C00E94C7020CC00E943A04CA3091F0F1CFD2
S11308D08C2F0E9487020E94EB02C295C07F8C2F4E
S11308E00E9487020E94EB02809108048F5F80932C
S11308F00804CF910895CF93DF93EC018991882365
S113090019F00E944F04FACFDF91CF9108950E940D
S113091084010E948A0180ED0E94960187E00E9472
S1130920960180E00E9496010C949001CF93DF938E
S1130930EC010E948A0180ED0E94960180E00E94F1
S1130940960188810E94960189810E9496018A817C
S11309500E9496018B810E9496018C810E949601CF
S11309608D810E9496018E810E949601DF91CF9124
S11309700C949001CF93DF93EC010E948A0180EDE7
S11309800E94960180E00E9496010E9490010E94BC
S11309908A0181ED0E94960181E00E949D01888375
S11309A081E00E949D01898381E00E949D018A83E8
S11309B081E00E949D018B8381E00E949D018C83D4
S11309C081E00E949D018D8380E00E949D018E83C1
S11309D0DF91CF910C949001CF92DF92EF92FF922E
S11309E06B017C01DC01CB0180569940A109B1095E
S11309F0813A984BA140B10598F4A8EFBFEFA70145
S1130A0096010E944F0B7C5D8B409F4FE4E0220FC8
S1130A10331F441F551FEA95D1F70E94240B02C0CF
S1130A2027E630E029B930BDFF90EF90DF90CF90FA
S1130A30089528E12AB926E820BD1BB80C94EC04DB
S1130A405F9BFECF8CB108955D9BFECF8CB908955A
S1130A50AF92BF92CF92DF92EF92FF920F931F93C8
S1130A60CF93DF931F92CDB7DEB76B017C01AA242D
S1130A70A394B12C4423E9F08FEF840F850102C0C5
S1130A80000F111F8A95E2F7012E000C220B330B85
S1130A900C211D212E213F2181E0012B022B032B50
S1130AA009F480E0805D49830E9424054981415016
S1130AB0E1CF0F90DF91CF911F910F91FF90EF90B5
S1130AC0DF90CF90BF90AF900895CF93DF93EC0168
S1130AD08991882319F00E942405FACFDF91CF91E0
S1130AE008954F925F926F927F92BF92CF92DF925E
S1130AF0EF92FF920F931F93CF93DF93CDB7DEB79F
S1130B002A970FB6F894DEBF0FBECDBFB82ECB0127
S1130B10BA01022F22E0B21216C0402F2A960FB655
S1130B20F894DEBF0FBECDBFDF91CF911F910F911F
S1130B30FF90EF90DF90CF90BF907F906F905F9089
S1130B404F900C942805611571058105910549F0B4
S1130B50FE0131966F017F014B2C512C612C712CBD
S1130B601EC010E01017A1F11A3091F180E30E9429
S1130B7024051F5FF7CF6115710581059105A1F06B
S1130B80162FA30192010E94240BCA01B901B29E3F
S1130B9010191124F7011083FFEFEF1AFF0A1E2D1D
S1130BA01C19101740F30FC00B3068F4F7011082C2
S1130BB0F3CFFE01E10FF11D80818A3038F0895CAA
S1130BC00E94240511501111F4CF02C0805DF8CFAA
S1130BD02A960FB6F894DEBF0FBECDBFDF91CF913A
S1130BE01F910F91FF90EF90DF90CF90BF907F9077
S1130BF06F905F904F9008958F929F92AF92BF92A3
S1130C00CF92DF92EF92FF926B017C010E94FA096E
S1130C104B015C012FEFAB01BC018AE00E9471051E
S1130C208EE20E942405C501B4010E94290A9B0199
S1130C30AC01C701B6010E948D0920E034E244E70B
S1130C4059E40E94B70A0E94FA09AB01BC012FEFD4
S1130C508AE0FF90EF90DF90CF90BF90AF909F908D
S1130C608F900C947105CF92DF92EF92FF920F93C5
S1130C701F93CF93DF9300D000D01F92CDB7DEB780
S1130C80FE017096C190D1908F01F6018081882376
S1130C9009F42CC1853209F00EC176018FEFE81AF0
S1130CA0F80AF601818190ED980F9A3008F0B7C0E8
S1130CB020E090ED980F9A3058F4FAE02F9F900DB1
S1130CC01124292F8FEFE81AF80AF7018081F1CF58
S1130CD0883509F4A8C070F4843409F450C018F4B9
S1130CE08234D9F4BDC0833509F4DAC0853509F4FA
S1130CF07DC0C6C0863609F4C5C040F4833681F091
S1130D00843621F1823609F0D9C09DC0853709F4B3
S1130D1059C0883709F479C0C1C0833408F4E0C0ED
S1130D206801F2E0CF0ED11CF80180810E942405F5
S1130D30C0C0893508F1863609F4A4C008F03FC064
S1130D40833671F3843609F07BC02FEF6801F2E03B
S1130D50CF0ED11CF8010081118117FF08C0119535
S1130D60019511098DE22D830E9424052D81A8018E
S1130D70110F660B770B43C0843471F52FEF6801B4
S1130D80F4E0CF0ED11CF80140815181628173815E
S1130D9077FF35C070956095509541955F4F6F4FC3
S1130DA07F4F8DE22D8349835A836B837C830E941A
S1130DB024057C816B815A8149812D8120C085372E
S1130DC001F52FEF6801F2E0CF0ED11CF80140814C
S1130DD0518160E070E013C0853408F474C0833539
S1130DE009F45EC0853509F04BC02FEF6801F4E0CB
S1130DF0CF0ED11CF80140815181628173818AE058
S1130E001CC0883709F04AC02FEF6801F2E0CF0E0A
S1130E10D11CF8014081518160E070E00DC088353B
S1130E2009F087CF2FEF6801F4E0CF0ED11CF80151
S1130E30408151816281738180E10E94710539C0D2
S1130E408236E1F52FEF6801F2E0CF0ED11CF801F4
S1130E50608171812F3F09F420E180E090E00CC0B3
S1130E606801F4E0CF0ED11CF801608171818281A8
S1130E7093812F3F09F420E2422F0E94280519C0D4
S1130E808634E1F46801F4E0CF0ED11CF8016081EE
S1130E907181828193810E94FC050BC0833771F4B8
S1130EA06801F2E0CF0ED11CF801808191810E948B
S1130EB06505860103C00E94240576016701FFEFE2
S1130EC0CF1ADF0AE2CE823409F027CF6801F4E0BA
S1130ED0CF0ED11CF8016081718182819381CBCFC7
S1130EE0853261F785E20E942405E8CF0F900F90C8
S1130EF00F900F900F90DF91CF911F910F91FF9062
S1130F00EF90DF90CF90089584E790E09F938F93C4
S1130F100E94330683EA90E09F938F930E943306E6
S1130F200F900F900F900F900E9420058B36E1F7E1
S1130F308FEF8ABB87BB84BB81BBCFEFEE24E394E6
S1130F40F12C90E8C92ED12C12E0CBBBC8BBC5BB99
S1130F50C2BB84E690E00E9469001BBA18BA15BAB5
S1130F6012BA84E690E00E946900113011F011E099
S1130F70ECCF00E010E0C701002E01C0880F0A94F6
S1130F80EAF78BBB88BB85BB82BB84E690E00E94FA
S1130F9069000F5F1F4F0830110569F700E010E08A
S1130FA0C601002E02C0959587950A94E2F78BBB83
S1130FB088BB85BB82BB84E690E00E9469000F5F1A
S1130FC01F4F0830110561F7BFCF8BEC90E00E94F2
S1130FD065058BEF90E09F938F930E9433060F90EB
S1130FE00F900E9420058B36E1F787E18F9386E10D
S1130FF08F9385E1882E94E1A92E23E1C22E32E15C
S1131000E32E01E120E14AE069E088E00E94540314
S113101060E182E00E94F40384E690E00E946900AB
S113102084E291E00E947B0485E391E00E947B04CA
S11310300F900F90FFCF84E491E00E9465058BEF41
S113104090E09F938F930E9433060F900F900E941D
S113105020058B36E1F787E18F9386E18F9385E155
S1131060882E94E1A92ECC24CA94EE24EA940FEF9E
S11310702FEF4AE069E088E00E94540360E182E0D7
S11310800E94F40384E690E00E94690084E291E007
S11310900E947B0489E791E00E947B040F900F90EB
S11310A0FFCF88E891E00E94650581ED91E09F9370
S11310B08F930E9433060F900F900E9420058B3669
S11310C0E1F78FEF84BB87BBCC24C39489EFD82E80
S11310D092E0E92E24EAF22E04E010EBD8E0C9E90C
S11310E0C8BAD5BA8AE090E00E946000E8BAF5BABE
S11310F08AE090E00E94600008BB15BB8AE090E0A3
S11311000E946000D8BBC5BB8AE090E00E946000EA
S1131110E7CFCF93DF93CDB7DEB727970FB6F89419
S1131120DEBF0FBECDBF8AEF91E09F938F930E94E5
S113113033068CE192E09F938F930E9433060F90C5
S11311400F900F900F900E9420058B36E1F70E94BC
S1131150870480E18B8380E48A83198281E08D8314
S11311608E8386E18F8385E08C83CE0101960E9475
S1131170960406E412E0CE0101960E94BA048F811F
S11311801F928F938E811F928F938D811F928F93C5
S113119089811F928F938A811F928F938B811F92D3
S11311A08F931F930F930E9433060FB6F894DEBFFC
S11311B00FBECDBFE0CF8CE692E09F938F930E9449
S11311C033060F900F90C1E4D0E081EBE82E82E06B
S11311D0F82E08EC12E0DF93CF93FF92EF920E9477
S11311E033066C2F80E090E00E94740080E090E071
S11311F00E947C001F928F931F930F930E943306CB
S113120021968DB79EB708960FB6F8949EBF0FBE71
S11312108DBFCB35D105F9F6FFCF0E945100C8ED43
S1131220D2E080E00E945500182F092F81E00E942F
S11312305500F82EE92E82E00E9455009F938F936B
S1131240EF92FF920F931F93DF93CF930E94330685
S11312508DB79EB708960FB6F8949EBF0FBE8DBF8C
S1131260E0CF85EF92E09F938F930E9433068FE047
S113127093E09F938F930E9433060F900F900F90EB
S11312800F900E9420058B36E1F787E1A82E96E1A6
S1131290C92E25E1E22E04E123E142E161E180E18E
S11312A00E94A801C7E3D3E00E94DB011F928F9341
S11312B0DF93CF930E9433060F900F900F900F90FF
S11312C0F3CF60E875E280E090E00E94190581E4C4
S11312D093E00E9465058CEC93E00E9465050E94F2
S11312E0200580930A0490E0FC01F197E830F105B1
S11312F0E8F7E65DFF4F0C94460B0E9484070E94BA
S1131300E5070E941B080E9451080E9489080E9458
S1131310DB080E940D090E9431095058BB27AA27F7
S11313200E94A5090C947D0A0E946F0A38F00E945D
S1131330760A20F039F49F3F19F426F40C946C0AD1
S11313400EF4E095E7FB0C94660AE92F0E948E0ADE
S113135058F3BA17620773078407950720F079F4E6
S1131360A6F50C94B00A0EF4E0950B2EBA2FA02D1E
S11313700B01B90190010C01CA01A0011124FF273E
S1131380591B99F0593F50F4503E68F11A16F04039
S1131390A22F232F342F4427585FF3CF4695379538
S11313A02795A795F0405395C9F77EF41F16BA0BFD
S11313B0620B730B840BBAF09150A1F0FF0FBB1FAB
S11313C0661F771F881FC2F70EC0BA0F621F731FF4
S11313D0841F48F4879577956795B795F7959E3F51
S11313E008F0B0CF9395880F08F09927EE0F9795E2
S11313F0879508950E94960A88F09F5798F0B92F10
S11314009927B751B0F0E1F0660F771F881F991F35
S11314101AF0BA95C9F714C0B13091F00E94B00A1D
S1131420B1E008950C94B00A672F782F8827B85F2D
S113143039F0B93FCCF3869577956795B395D9F78D
S11314403EF490958095709561957F4F8F4F9F4F97
S11314500895E89409C097FB3EF4909580957095A3
S113146061957F4F8F4F9F4F9923A9F0F92F96E9EC
S1131470BB279395F695879577956795B795F11161
S1131480F8CFFAF4BB0F11F460FF1BC06F5F7F4FFE
S11314908F4F9F4F16C0882311F096E911C0772310
S11314A021F09EE8872F762F05C0662371F096E819
S11314B0862F70E060E02AF09A95660F771F881FE8
S11314C0DAF7880F9695879597F9089597F99F67A6
S11314D080E870E060E008959FEF80EC08950024B8
S11314E00A941616170618060906089500240A9485
S11314F012161306140605060895092E0394000C0B
S113150011F4882352F0BB0F40F4BF2B11F460FF99
S113151004C06F5F7F4F8F4F9F4F089557FD9058C2
S1131520440F551F59F05F3F71F04795880F97FBA3
S1131530991F61F09F3F79F087950895121613065D
S11315401406551FF2CF4695F1DF08C0161617068C
S11315501806991FF1CF86957105610508940895C1
S1131560E894BB2766277727CB0197F908950E9453
S1131570CA0A0C947D0A0E946F0A38F00E94760A07
S113158020F0952311F00C94660A0C946C0A112433
S11315900C94B10A0E948E0A70F3959FC1F3950FC3
S11315A050E0551F629FF001729FBB27F00DB11DE3
S11315B0639FAA27F00DB11DAA1F649F6627B00D73
S11315C0A11D661F829F2227B00DA11D621F739F5C
S11315D0B00DA11D621F839FA00D611D221F749F6A
S11315E03327A00D611D231F849F600D211D822FB1
S11315F0762F6A2F11249F5750409AF0F1F08823D8
S11316004AF0EE0FFF1FBB1F661F771F881F915004
S11316105040A9F79E3F510580F00C94660A0C9443
S1131620B10A5F3FE4F3983ED4F3869577956795C6
S1131630B795F795E7959F5FC1F7FE2B880F911D2E
S11316409695879597F90895A1E21A2EAA1BBB1BBC
S1131650FD010DC0AA1FBB1FEE1FFF1FA217B3077A
S1131660E407F50720F0A21BB30BE40BF50B661F90
S1131670771F881F991F1A9469F760957095809554
S113168090959B01AC01BD01CF010895EE0FFF1FA2
S11316900590F491E02D0994B7FF0C94540B0E942B
S11316A0540B821B930B08950E945F0BA59F900D12
S11316B0B49F900DA49F800D911D11240895A29FA5
S11316C0B001B39FC001A39F700D811D1124911D12
S11316D0B29F700D811D1124911D0895F894FFCFC0
S11316E03031323334353637383941424344454654
S11316F080C090D00A0D436F6E6E65637420616E76
S11317007920494F2050696E7320746F2062757A76
S11317107A65722C2072656C6179732C206C656417
S11317207320000A0D4D616B6520636F6E6E6563F7
S113173074696F6E7320616E642068697420276B0E
S11317402720746F207465737420000A0D204C43A5
S11317504420446174614275733A50432020202030
S113176052532D50422E30202052572D50422E31AC
S11317702020454E2D50422E3220000A0D204D616E
S11317806B6520636F6E6E656374696F6E73206141
S11317906E642068697420276B2720746F20746539
S11317A0737420004578706C6F726520456D6265B6
S11317B064646564004C636420382D626974204D50
S11317C06F6465000A0D204C4344204461746142F7
S11317D075733A5043342D50433720202020525300
S11317E02D50422E30202052572D50422E31202091
S11317F0454E2D50422E3220004C636420342D621D
S11318006974204D6F6465000A0D205365676D652A
S11318106E7420446174614275733A2050432053BE
S113182065672073656C6563743A2053312D3E50AF
S1131830422E302053322D3E50422E312053332D30
S11318403E50422E322053342D3E50422E3320201F
S1131850000A0D4D616B6520636F6E6E656374697C
S11318606F6E7320616E642068697420276B272073
S1131870746F20746573742120000A0D436F6E6EBB
S1131880656374696F6E732053434C2D3E50432E31
S113189030205344412D3E50432E31000A0D204D3B
S11318A0616B6520636F6E6E656374696F6E732020
S11318B0616E642068697420276B2720746F20741C
S11318C06573742120000A0D74696D653A253278B8
S11318D03A2532783A25327820200A446174653AF0
S11318E02532782F2532782F253278000A0D0A0DFB
S11318F0496E6275696C7420456570726F6D205411
S11319006573742E2057726974696E6720616E6402
S11319102072656164696E6720412D5A20746F20BE
S1131920616E642066726F6D20456570726F6D2EF6
S1131930000A0D456570726F6D2057726974653ABF
S11319402025632020202000456570726F6D205291
S11319506561643A202563000A0D74656D703A254B
S1131960346420706F743A253464206C6967687439
S11319703A253464000A0D436F6E6E656374204B20
S1131980657950616420546F20506F727443000A6B
S11319900D4D616B6520636F6E6E656374696F6E68
S11319A07320616E642068697420276B2720746F2C
S11319B0207465737421000A0D204B65793A256300
S11319C0000A0D54657374206D656E75205574722C
S11319D061204156522076312E310D0A20313A478A
S11319E050494F20426C696E6B0D0A20323A4C43C9
S11319F04420382D626974200A0D20333A4C434444
S1131A0020342D6269740A0D20343A372D536567EA
S1131A106D656E740A0D20353A5254430A0D203612
S1131A203A454550524F4D0A0D20373A4144430A36
S1131A300D20383A4B6579706164200A0D20456E9B
S1131A40746572206F7074696F6E3A000A0D526586
S1131A507365742074686520626F617264206166C6
S1131A60746572207465737420697320646F6E6585
S1051A70000070
S9030000FC
