:100000000C942A000C9447000C9447000C94470071
:100010000C9447000C9447000C9447000C94470044
:100020000C9447000C9447000C9447000C94470034
:100030000C9447000C9447000C9447000C94470024
:100040000C9447000C9447000C9447000C94470014
:100050000C94470011241FBECFE5D8E0DEBFCDBF12
:1000600010E0A0E6B0E0ECEFF6E002C005900D92E3
:10007000A637B107D9F720E0A6E7B0E001C01D928E
:10008000A638B207E1F70E945E030C947C030C943F
:100090000000009731F025E02A95F1F70000019764
:1000A000F8CF0895009741F0EFE9FFE03197F1F7BD
:1000B00000C000000197F6CF0895982F977086959D
:1000C00086958695813001F130F08230B1F1833030
:1000D00009F44CC008954AB321E030E0662349F0AA
:1000E000B90102C0660F771F9A95E2F7CB01842B06
:1000F00009C0B90102C0660F771F9A95E2F7CB01DC
:10010000809584238ABB089547B321E030E06623BD
:1001100049F0B90102C0660F771F9A95E2F7CB014B
:10012000842B09C0B90102C0660F771F9A95E2F7C8
:10013000CB018095842387BB089544B321E030E050
:10014000662349F0B90102C0660F771F9A95E2F75E
:10015000CB01842B09C0B90102C0660F771F9A95A5
:10016000E2F7CB018095842384BB089541B321E05D
:1001700030E0662349F0B90102C0660F771F9A95F7
:10018000E2F7CB01842B09C0B90102C0660F771FCB
:100190009A95E2F7CB018095842381BB0895982F2F
:1001A0009770869586958695813001F130F0823082
:1001B000B1F1833009F44CC008954BB321E030E035
:1001C000662349F0B90102C0660F771F9A95E2F7DE
:1001D000CB01842B09C0B90102C0660F771F9A9525
:1001E000E2F7CB01809584238BBB089548B321E0CF
:1001F00030E0662349F0B90102C0660F771F9A9577
:10020000E2F7CB01842B09C0B90102C0660F771F4A
:100210009A95E2F7CB018095842388BB089545B376
:1002200021E030E0662349F0B90102C0660F771F74
:100230009A95E2F7CB01842B09C0B90102C0660F81
:10024000771F9A95E2F7CB018095842385BB0895AB
:1002500042B321E030E0662349F0B90102C0660FE5
:10026000771F9A95E2F7CB01842B09C0B90102C030
:10027000660F771F9A95E2F7CB018095842382BBA6
:100280000895282F2770869586958695813049F0A8
:1002900030F0823041F0833079F480B305C089B307
:1002A00003C086B301C083B390E002C095958795E3
:1002B0002A95E2F78170089580E008950F931F93C7
:1002C000CF93C82F84FB662760F906E710E0F8019A
:1002D00082850E94CF00C5FB662760F9F8018385FF
:1002E0000E94CF00C6FB662760F9F80184850E9452
:1002F000CF006C2F661F6627661FF8018585CF919A
:100300001F910F910C94CF00CF93DF93C6E7D0E0FD
:1003100060E08B810E94CF0060E08C810E94CF0062
:1003200061E08D810E94CF008AE090E00E94490048
:1003300060E08D81DF91CF910C94CF000F931F93DC
:10034000CF93C82F682F617006E710E0F80186810F
:100350000E94CF00C1FB662760F9F80187810E94E7
:10036000CF00C2FB662760F9F80180850E94CF00AC
:10037000C3FB662760F9F8018185CF911F910F912A
:100380000C94CF00CF93DF93C6E7D0E061E08B8180
:100390000E94CF0060E08C810E94CF0061E08D81DF
:1003A0000E94CF008AE090E00E94490060E08D81C9
:1003B000DF91CF910C94CF00CF9380917A008F3F43
:1003C00009F444C060E0809183000E945D0060E019
:1003D000809179000E94CF0061E080917A000E94B4
:1003E000CF0060E080917B000E94CF008AE090E027
:1003F0000E94490061E080917B000E94CF008AE06A
:1004000090E00E944900809183000E944101C82F22
:1004100080917800843091F460E080917B000E94AC
:10042000CF008AE090E00E94490061E080917B006B
:100430000E94CF008AE090E00E944900C111D1CF14
:1004400061E080918300CF910C945D0081E090E0A9
:10045000CF910C9452008F929F92AF92BF92CF9205
:10046000DF92EF92FF920F931F93CF93DF93CDB75D
:10047000DEB7982EB62ED42EFF841889809379008B
:1004800060937A0040937B0020937C0000937D0072
:10049000E0927E00C0927F00A09280008092810056
:1004A000F0928200109383002F3F39F00F3F29F024
:1004B0008FEFE81611F0C81204C084E08093780032
:1004C00013C088E08093780061E0822F0E945D0075
:1004D00061E0802F0E945D0061E08E2D0E945D0032
:1004E00061E08C2D0E945D0061E0892D0E945D001D
:1004F00061E08B2D0E945D0061E08D2D0E945D000A
:1005000061E08A2D0E945D0061E0882D0E945D00FF
:1005100061E08F2D0E945D0061E0812FDF91CF911E
:100520001F910F91FF90EF90DF90CF90BF90AF9011
:100530009F908F900C945D00CF93C82F0E94DC0198
:1005400080917800883021F48C2F0E949E0107C092
:100550008C2F0E945E010E948401C295C07F8C2F67
:100560000E945E01CF910C948401909176008917CE
:1005700058F41092840080938500E82FF0E0E05A50
:10058000FF4F80810C949C02089581E00E949C02A0
:1005900080E00C94B50260937700809376008330FE
:1005A00040F06F7080E9860F809362006053609323
:1005B000630084E690E00E945200809178008830C9
:1005C00011F488E327C0843039F580E30E945E018E
:1005D0000E94840184E690E00E94520080E30E9421
:1005E0005E010E94840188EC90E00E94490080E353
:1005F0000E945E010E94840188EC90E00E94490004
:1006000080E20E945E010E94840188EC90E00E94DA
:10061000490088E20E949C028EE00E949C020C9499
:10062000C502809185008F5F8093850010928400C1
:1006300090917600891710F010928500E091850066
:10064000F0E0E05AFF4F80810C949C02CF93C82FBA
:100650009091840080917700981760F4CA3051F02F
:100660000E94DC0180917800883049F48C2F0E9430
:100670009E010CC00E941103CA3091F0F1CF8C2F63
:100680000E945E010E94C201C295C07F8C2F0E9411
:100690005E010E94C201809184008F5F809384007C
:1006A000CF910895CF93DF93EC018991882319F0BE
:1006B0000E942603FACFDF91CF91089587E18F93AF
:1006C00086E18F9385E1882E94E1A92ECC24CA94EB
:1006D000EE24EA940FEF2FEF4AE069E088E00E94F1
:1006E0002B0260E181E00E94CB0284E690E00E9450
:0C06F00052030F900F90FFCFF894FFCF43
:1006FC0080C090D04578706C6F726520456D6265D6
:06070C0064646564000056
:00000001FF
