S01F00003037652D4144435F54656D70657261747572655F4C43442E7372656325
S11300000C942A000C9447000C9447000C9447006D
S11300100C9447000C9447000C9447000C94470040
S11300200C9447000C9447000C9447000C94470030
S11300300C9447000C9447000C9447000C94470020
S11300400C9447000C9447000C9447000C94470010
S11300500C94470011241FBECFE5D8E0DEBFCDBF0E
S113006010E0A0E6B0E0EAE9FFE002C005900D92DE
S1130070A038B107D9F720E0A0E8B0E001C01D9294
S1130080A039B207E1F70E94C9050C94CB070C9480
S1130090000081E886B917B8089587B98AE090E02E
S11300A00E945800369A349BFECF84B195B10895CE
S11300B0009731F025E02A95F1F700000197F8CF79
S11300C00895009741F0EFE9FFE03197F1F700C0A0
S11300D000000197F6CF0895982F9770869586951E
S11300E08695813001F130F08230B1F1833009F42A
S11300F04CC008954AB321E030E0662349F0B901C9
S113010002C0660F771F9A95E2F7CB01842B09C0D2
S1130110B90102C0660F771F9A95E2F7CB0180956B
S113012084238ABB089547B321E030E0662349F075
S1130130B90102C0660F771F9A95E2F7CB01842BB1
S113014009C0B90102C0660F771F9A95E2F7CB0187
S11301508095842387BB089544B321E030E066236F
S113016049F0B90102C0660F771F9A95E2F7CB01F7
S1130170842B09C0B90102C0660F771F9A95E2F774
S1130180CB018095842384BB089541B321E030E002
S1130190662349F0B90102C0660F771F9A95E2F70A
S11301A0CB01842B09C0B90102C0660F771F9A9551
S11301B0E2F7CB018095842381BB0895982F977033
S11301C0869586958695813001F130F08230B1F1C3
S11301D0833009F44CC008954BB321E030E066232A
S11301E049F0B90102C0660F771F9A95E2F7CB0177
S11301F0842B09C0B90102C0660F771F9A95E2F7F4
S1130200CB01809584238BBB089548B321E030E073
S1130210662349F0B90102C0660F771F9A95E2F789
S1130220CB01842B09C0B90102C0660F771F9A95D0
S1130230E2F7CB018095842388BB089545B321E080
S113024030E0662349F0B90102C0660F771F9A9522
S1130250E2F7CB01842B09C0B90102C0660F771FF6
S11302609A95E2F7CB018095842385BB089542B328
S113027021E030E0662349F0B90102C0660F771F20
S11302809A95E2F7CB01842B09C0B90102C0660F2D
S1130290771F9A95E2F7CB018095842382BB08955A
S11302A0282F2770869586958695813049F030F001
S11302B0823041F0833079F480B305C089B303C040
S11302C086B301C083B390E002C0959587952A95C3
S11302D0E2F78170089580E008950F931F93CF9300
S11302E0C82F84FB662760F900E810E0F8018285D6
S11302F00E94DE00C5FB662760F9F80183850E9431
S1130300DE00C6FB662760F9F80184850E94DE00E2
S11303106C2F661F6627661FF8018585CF911F9194
S11303200F910C94DE00CF93DF93C0E8D0E060E03F
S11303308B810E94DE0060E08C810E94DE0061E01F
S11303408D810E94DE008AE090E00E94580060E007
S11303508D81DF91CF910C94DE000F931F93CF9387
S1130360C82F682F617000E810E0F80186810E94B0
S1130370DE00C1FB662760F9F80187810E94DE0078
S1130380C2FB662760F9F80180850E94DE00C3FB8A
S1130390662760F9F8018185CF911F910F910C9424
S11303A0DE00CF93DF93C0E8D0E061E08B810E9450
S11303B0DE0060E08C810E94DE0061E08D810E949D
S11303C0DE008AE090E00E94580060E08D81DF91B9
S11303D0CF910C94DE00CF93809184008F3F09F479
S11303E044C060E080918D000E946C0060E08091C8
S11303F083000E94DE0061E0809184000E94DE00A0
S113040060E0809185000E94DE008AE090E00E9416
S1130410580061E0809185000E94DE008AE090E04F
S11304200E94580080918D000E945001C82F809135
S11304308200843091F460E0809185000E94DE00A7
S11304408AE090E00E94580061E0809185000E945B
S1130450DE008AE090E00E945800C111D1CF61E033
S113046080918D00CF910C946C0081E090E0CF914D
S11304700C9461008F929F92AF92BF92CF92DF92C1
S1130480EF92FF920F931F93CF93DF93CDB7DEB715
S1130490982EB62ED42EFF841889809383006093FF
S11304A08400409385002093860000938700E092A7
S11304B08800C0928900A0928A0080928B00F092FA
S11304C08C0010938D002F3F39F00F3F29F08FEFF0
S11304D0E81611F0C81204C084E08093820013C0AF
S11304E088E08093820061E0822F0E946C0061E0CA
S11304F0802F0E946C0061E08E2D0E946C0061E0F0
S11305008C2D0E946C0061E0892D0E946C0061E0DA
S11305108B2D0E946C0061E08D2D0E946C0061E0C7
S11305208A2D0E946C0061E0882D0E946C0061E0BD
S11305308F2D0E946C0061E0812FDF91CF911F917C
S11305400F91FF90EF90DF90CF90BF90AF909F906E
S11305508F900C946C00CF93C82F0E94EB01809174
S11305608200883021F48C2F0E94AD0107C08C2FAB
S11305700E946D010E949301C295C07F8C2F0E943E
S11305806D01CF910C94930190918000891758F4D8
S113059010928E0080938F00E82FF0E0E05AFF4F16
S11305A080810C94AB02089581E00E94AB0280E04C
S11305B00C94C4026093810080938000833040F0E7
S11305C06F7080E9860F80936200605360936300CC
S11305D084E690E00E94610080918200883011F4EA
S11305E088E327C0843039F580E30E946D010E94BE
S11305F0930184E690E00E94610080E30E946D0113
S11306000E94930188EC90E00E94580080E30E94CD
S11306106D010E94930188EC90E00E94580080E2F2
S11306200E946D010E94930188EC90E00E945800A2
S113063088E20E94AB028EE00E94AB020C94D402CA
S113064080918F008F5F80938F0010928E00909125
S11306508000891710F010928F00E0918F00F0E075
S1130660E05AFF4F80810C94AB02CF93C82F909136
S11306708E0080918100981760F4CA3051F00E9476
S1130680EB0180918200883049F48C2F0E94AD01E7
S11306900CC00E942003CA3091F0F1CF8C2F0E942D
S11306A06D010E94D101C295C07F8C2F0E946D0103
S11306B00E94D10180918E008F5F80938E00CF9134
S11306C00895AF92BF92CF92DF92EF92FF920F9371
S11306D01F93CF93DF931F92CDB7DEB76B017C01DD
S11306E0AA24A394B12C4423E9F08FEF840F85014D
S11306F002C0000F111F8A95E2F7012E000C220B95
S1130700330B0C211D212E213F2181E0012B022BD3
S1130710032B09F480E0805D49830E9435034981FD
S11307204150E1CF0F90DF91CF911F910F91FF9036
S1130730EF90DF90CF90BF90AF900895CF93DF9369
S1130740EC018991882319F00E943503FACFDF91D7
S1130750CF9108954F925F926F927F92BF92CF9202
S1130760DF92EF92FF920F931F93CF93DF93CDB756
S1130770DEB72A970FB6F894DEBF0FBECDBFB82EF2
S1130780CB01BA01022F22E0B21216C0402F2A96E2
S11307900FB6F894DEBF0FBECDBFDF91CF911F918E
S11307A00F91FF90EF90DF90CF90BF907F906F906C
S11307B05F904F900C94610361157105810591055B
S11307C049F0FE0131966F017F014B2C512C612CB5
S11307D0712C2AC080E32A960FB6F894DEBF0FBEB0
S11307E0CDBFDF91CF911F910F91FF90EF90DF90DC
S11307F0CF90BF907F906F905F904F900C94350393
S11308006115710581059105A1F0162FA3019201CF
S11308100E94A907CA01B901B29E10191124F70157
S11308201083FFEFEF1AFF0A1E2D1C19101740F357
S11308300FC00B3068F4F7011082F3CFFE01E10F13
S1130840F11D80818A3038F0895C0E943503115093
S11308501111F4CF02C0805DF8CF2A960FB6F89438
S1130860DEBF0FBECDBFDF91CF911F910F91FF90DF
S1130870EF90DF90CF90BF907F906F905F904F90FC
S113088008958F929F92AF92BF92CF92DF92EF9290
S1130890FF926B017C010E947F064B015C012FEFEC
S11308A0AB01BC018AE00E94AA038EE20E943503D8
S11308B0C501B4010E94AE069B01AC01C701B6019B
S11308C00E940B0620E034E244E759E40E943C070E
S11308D00E947F06AB01BC012FEF8AE0FF90EF90EE
S11308E0DF90CF90BF90AF909F908F900C94AA030D
S11308F0CF92DF92EF92FF920F931F93CF93DF93E8
S113090000D000D01F92CDB7DEB7FE017096C19023
S1130910D1908F01F6018081882309F42CC185329E
S113092009F00EC176018FEFE81AF80AF601818109
S113093090ED980F9A3008F0B7C020E090ED980F32
S11309409A3058F4FAE02F9F900D1124292F8FEF3D
S1130950E81AF80AF7018081F1CF883509F4A8C0B4
S113096070F4843409F450C018F48234D9F4BDC04E
S1130970833509F4DAC0853509F47DC0C6C08636EE
S113098009F4C5C040F4833681F0843621F18236FF
S113099009F0D9C09DC0853709F459C0883709F4D6
S11309A079C0C1C0833408F4E0C06801F2E0CF0E1E
S11309B0D11CF80180810E943503C0C0893508F13B
S11309C0863609F4A4C008F03FC0833671F3843638
S11309D009F07BC02FEF6801F2E0CF0ED11CF801C3
S11309E00081118117FF08C01195019511098DE24D
S11309F02D830E9435032D81A801110F660B770BFF
S1130A0043C0843471F52FEF6801F4E0CF0ED11C9C
S1130A10F801408151816281738177FF35C07095FF
S1130A206095509541955F4F6F4F7F4F8DE22D83B9
S1130A3049835A836B837C830E9435037C816B8159
S1130A405A8149812D8120C0853701F52FEF680136
S1130A50F2E0CF0ED11CF8014081518160E070E0DA
S1130A6013C0853408F474C0833509F45EC0853539
S1130A7009F04BC02FEF6801F4E0CF0ED11CF80150
S1130A8040815181628173818AE01CC0883709F0FA
S1130A904AC02FEF6801F2E0CF0ED11CF80140816B
S1130AA0518160E070E00DC0883509F087CF2FEFE9
S1130AB06801F4E0CF0ED11CF801408151816281BC
S1130AC0738180E10E94AA0339C08236E1F52FEFD9
S1130AD06801F2E0CF0ED11CF801608171812F3FD3
S1130AE009F420E180E090E00CC06801F4E0CF0E4E
S1130AF0D11CF80160817181828193812F3F09F4B7
S1130B0020E1422F0E94610319C08634E1F4680198
S1130B10F4E0CF0ED11CF801608171818281938150
S1130B200E9441040BC0833771F46801F2E0CF0ED8
S1130B30D11CF801808191810E949E03860103C02B
S1130B400E94350376016701FFEFCF1ADF0AE2CE78
S1130B50823409F027CF6801F4E0CF0ED11CF801EC
S1130B606081718182819381CBCF853261F785E287
S1130B700E943503E8CF0F900F900F900F900F90C5
S1130B80DF91CF911F910F91FF90EF90DF90CF9065
S1130B9008950E9449008FE08F938EE08F938DE03B
S1130BA0882E9CE0A92ECC24CA94EE24EA940FEF5C
S1130BB02FEF4AE069E088E00E943A0260E182E0B7
S1130BC00E94DA020F900F9004E610E080E00E9489
S1130BD04D00EC0180E00E94C402BE010D2E000C09
S1130BE0880B990B0E94B00620E030E040E05FE300
S1130BF00E943C070E9478067F936F93DF93CF9304
S1130C001F930F930E9478040F900F900F900F90F2
S1130C100F900F90DBCF5058BB27AA270E942306C2
S1130C200C9402070E94F40638F00E94FB0620F0A0
S1130C3039F49F3F19F426F40C94F1060EF4E09570
S1130C40E7FB0C94EB06E92F0E94130758F3BA173D
S1130C50620773078407950720F079F4A6F50C94CE
S1130C6035070EF4E0950B2EBA2FA02D0B01B90118
S1130C7090010C01CA01A0011124FF27591B99F00E
S1130C80593F50F4503E68F11A16F040A22F232F1A
S1130C90342F4427585FF3CF469537952795A7956A
S1130CA0F0405395C9F77EF41F16BA0B620B730B11
S1130CB0840BBAF09150A1F0FF0FBB1F661F771F82
S1130CC0881FC2F70EC0BA0F621F731F841F48F437
S1130CD0879577956795B795F7959E3F08F0B0CFC0
S1130CE09395880F08F09927EE0F979587950895A7
S1130CF00E947F066894B1110C94360708950E94EF
S1130D001B0788F09F5798F0B92F9927B751B0F077
S1130D10E1F0660F771F881F991F1AF0BA95C9F77B
S1130D2014C0B13091F00E943507B1E008950C94DD
S1130D303507672F782F8827B85F39F0B93FCCF390
S1130D40869577956795B395D9F73EF490958095F8
S1130D50709561957F4F8F4F9F4F0895E89409C018
S1130D6097FB3EF490958095709561957F4F8F4FDA
S1130D709F4F9923A9F0F92F96E9BB279395F695F0
S1130D80879577956795B795F111F8CFFAF4BB0F6E
S1130D9011F460FF1BC06F5F7F4F8F4F9F4F16C0D2
S1130DA0882311F096E911C0772321F09EE8872F5C
S1130DB0762F05C0662371F096E8862F70E060E018
S1130DC02AF09A95660F771F881FDAF7880F969591
S1130DD0879597F9089597F99F6780E870E060E038
S1130DE008959FEF80EC089500240A9416161706C0
S1130DF018060906089500240A9412161306140608
S1130E0005060895092E0394000C11F4882352F06A
S1130E10BB0F40F4BF2B11F460FF04C06F5F7F4F22
S1130E208F4F9F4F089557FD9058440F551F59F009
S1130E305F3F71F04795880F97FB991F61F09F3FC3
S1130E4079F087950895121613061406551FF2CFEC
S1130E504695F1DF08C0161617061806991FF1CF3C
S1130E6086957105610508940895E894BB27662763
S1130E707727CB0197F908950E944F070C94020736
S1130E800E94F40638F00E94FB0620F0952311F02E
S1130E900C94EB060C94F10611240C9436070E9472
S1130EA0130770F3959FC1F3950F50E0551F629F90
S1130EB0F001729FBB27F00DB11D639FAA27F00DAF
S1130EC0B11DAA1F649F6627B00DA11D661F829FD6
S1130ED02227B00DA11D621F739FB00DA11D621FBB
S1130EE0839FA00D611D221F749F3327A00D611DD8
S1130EF0231F849F600D211D822F762F6A2F1124BA
S1130F009F5750409AF0F1F088234AF0EE0FFF1FEC
S1130F10BB1F661F771F881F91505040A9F79E3F43
S1130F20510580F00C94EB060C9436075F3FE4F314
S1130F30983ED4F3869577956795B795F795E79599
S1130F409F5FC1F7FE2B880F911D9695879597F9A2
S1130F500895A1E21A2EAA1BBB1BFD010DC0AA1FF6
S1130F60BB1FEE1FFF1FA217B307E407F50720F00E
S1130F70A21BB30BE40BF50B661F771F881F991F89
S1130F801A9469F760957095809590959B01AC01D2
S10D0F90BD01CF010895F894FFCFCE
S1130F9A80C090D0414443302056616C75653A252F
S1130FAA3464200A54656D703A2564430A0D0000BE
S9030000FC
