S01E00003034632D4C63645F386269745F5363726F6C6C696E672E737265631D
S11300000C942A000C9447000C9447000C9447006D
S11300100C9447000C9447000C9447000C94470040
S11300200C9447000C9447000C9447000C94470030
S11300300C9447000C9447000C9447000C94470020
S11300400C9447000C9447000C9447000C94470010
S11300500C94470011241FBECFE5D8E0DEBFCDBF0E
S113006010E0A0E6B0E0EEE6F7E002C005900D92E5
S1130070AC39B107D9F720E0ACE9B0E001C01D927A
S1130080AC3AB207E1F70E9496030C94B5030C94C2
S11300900000982F9770869586958695813001F19A
S11300A030F08230B1F1833009F44CC008954AB382
S11300B021E030E0662349F0B90102C0660F771FE2
S11300C09A95E2F7CB01842B09C0B90102C0660FEF
S11300D0771F9A95E2F7CB01809584238ABB089514
S11300E047B321E030E0662349F0B90102C0660F4E
S11300F0771F9A95E2F7CB01842B09C0B90102C09E
S1130100660F771F9A95E2F7CB018095842387BB0E
S1130110089544B321E030E0662349F0B90102C0F8
S1130120660F771F9A95E2F7CB01842B09C0B901BA
S113013002C0660F771F9A95E2F7CB01809584235E
S113014084BB089541B321E030E0662349F0B9014E
S113015002C0660F771F9A95E2F7CB01842B09C082
S1130160B90102C0660F771F9A95E2F7CB0180951B
S1130170842381BB0895982F9770869586958695DC
S1130180813001F130F08230B1F1833009F44CC098
S113019008954BB321E030E0662349F0B90102C071
S11301A0660F771F9A95E2F7CB01842B09C0B9013A
S11301B002C0660F771F9A95E2F7CB0180958423DE
S11301C08BBB089548B321E030E0662349F0B901C0
S11301D002C0660F771F9A95E2F7CB01842B09C002
S11301E0B90102C0660F771F9A95E2F7CB0180959B
S11301F0842388BB089545B321E030E0662349F0A9
S1130200B90102C0660F771F9A95E2F7CB01842BE0
S113021009C0B90102C0660F771F9A95E2F7CB01B6
S11302208095842385BB089542B321E030E06623A2
S113023049F0B90102C0660F771F9A95E2F7CB0126
S1130240842B09C0B90102C0660F771F9A95E2F7A3
S1130250CB018095842382BB0895282F277086952F
S113026086958695813049F030F0823041F08330B4
S113027079F480B305C089B303C086B301C083B3E6
S113028090E002C0959587952A95E2F781700895CC
S113029080E008950F931F93CF93C82F84FB6627A4
S11302A060F90CE910E0F80182850E94BB00C5FBEF
S11302B0662760F9F80183850E94BB00C6FB6627A8
S11302C060F9F80184850E94BB006C2F661F6627C5
S11302D0661FF8018585CF911F910F910C94BB0087
S11302E0CF93DF93CCE9D0E060E08B810E94BB0028
S11302F060E08C810E94BB0061E08D810E94BB00A4
S11303008AE090E00E94820360E08D81DF91CF91CA
S11303100C94BB000F931F93CF93C82F682F617069
S11303200CE910E0F80186810E94BB00C1FB66273E
S113033060F9F80187810E94BB00C2FB662760F95F
S1130340F80180850E94BB00C3FB662760F9F801B1
S11303508185CF911F910F910C94BB00CF93DF93B4
S1130360CCE9D0E061E08B810E94BB0060E08C812D
S11303700E94BB0061E08D810E94BB008AE090E096
S11303800E94820360E08D81DF91CF910C94BB00C9
S1130390CF938091A0008F3F09F444C060E0809126
S11303A0A9000E94490060E080919F000E94BB0068
S11303B061E08091A0000E94BB0060E08091A100F8
S11303C00E94BB008AE090E00E94820361E0809179
S11303D0A1000E94BB008AE090E00E948203809109
S11303E0A9000E942D01C82F80919E00843091F4B1
S11303F060E08091A1000E94BB008AE090E00E942E
S1130400820361E08091A1000E94BB008AE090E039
S11304100E948203C111D1CF61E08091A900CF91E4
S11304200C94490081E090E0CF910C948B038F925F
S11304309F92AF92BF92CF92DF92EF92FF920F936F
S11304401F93CF93DF93CDB7DEB7982EB62ED42E5D
S1130450FF84188980939F006093A0004093A100BB
S11304602093A2000093A300E092A400C092A500F0
S1130470A092A6008092A700F092A8001093A90071
S11304802F3F39F00F3F29F08FEFE81611F0C81213
S113049004C084E080939E0013C088E080939E0093
S11304A061E0822F0E94490061E0802F0E94490090
S11304B061E08E2D0E94490061E08C2D0E9449006C
S11304C061E0892D0E94490061E08B2D0E94490062
S11304D061E08D2D0E94490061E08A2D0E9449004F
S11304E061E0882D0E94490061E08F2D0E9449003F
S11304F061E0812FDF91CF911F910F91FF90EF90D9
S1130500DF90CF90BF90AF909F908F900C94490054
S1130510CF93C82F0E94C80180919E00883021F497
S11305208C2F0E948A0107C08C2F0E944A010E94CE
S11305307001C295C07F8C2F0E944A01CF910C9408
S1130540700190919C00891758F41092AA0080932E
S1130550AB00E82FF0E0E05AFF4F80810C94880252
S1130560089581E00E94880280E00C94A1026093C7
S11305709D0080939C00833040F06F7080E9860F6B
S11305808093620060536093630084E690E00E946D
S11305908B0380919E00883011F488E327C0843057
S11305A039F580E30E944A010E94700184E690E0DC
S11305B00E948B0380E30E944A010E94700188EC30
S11305C090E00E94820380E30E944A010E9470012D
S11305D088EC90E00E94820380E20E944A010E941B
S11305E0700188EC90E00E94820388E20E948802F5
S11305F08EE00E9488020C94B1028091AB008F5F60
S11306008093AB001092AA0090919C00891710F07F
S11306101092AB00E091AB00F0E0E05AFF4F808114
S11306200C948802CF93C82F9091AA0080919D00CA
S1130630981760F4CA3051F00E94C80180919E005E
S1130640883049F48C2F0E948A010CC00E94FD025C
S1130650CA3091F0F1CF8C2F0E944A010E94AE0162
S1130660C295C07F8C2F0E944A010E94AE018091E6
S1130670AA008F5F8093AA00CF910895CF92DF9252
S1130680FF920F931F93CF93DF93F82E6B0180910A
S11306909C00F81608F0F12C8CE00E948802D0E04F
S11306A086010D0F111DF8018081882309F18F2D1A
S11306B00E94A102C0E080919D00C81750F4F80187
S11306C0EC0FF11D8081882321F00E941203CF5F7B
S11306D0F2CF80919D00C81728F480E20E94120393
S11306E0CF5FF7CF88EC90E00E948B03DF5FD8CF19
S11306F08EE0DF91CF911F910F91FF90DF90CF900B
S11307000C948802009731F025E02A95F1F7000057
S11307100197F8CF0895009741F0EFE9FFE0319792
S1130720F1F700C000000197F6CF08958FE08F9392
S11307308EE08F938DE0882E9CE0A92E2BE0C22EB4
S11307403AE0E32E09E028E04AE169E188E10E9409
S1130750170260E182E00E94B7020F900F9064E6F6
S111076070E080E00E943E03FACFF894FFCFD1
S113076E80C090D0202020202020202057656C634C
S113077E6F6D6520746F204156522070726F6772D0
S113078E616D6D696E67206279204578706C6F7249
S10F079E6520456D62656464656420009C
S9030000FC
