:100000000C942A000C9434000C9434000C943400AA
:100010000C9434000C9434000C9434000C94340090
:100020000C9434000C9434000C9434000C94340080
:100030000C9434000C9434000C9434000C94340070
:100040000C9434000C9434000C9434000C94340060
:100050000C94340011241FBECFE5D8E0DEBFCDBF25
:100060000E9436000C94A9000C9400008FEF8ABB0C
:1000700087BB84BB81BB61E070E0E0E8F0E08BBB54
:1000800088BB85BB82BB2FEF31EE44E0215030406E
:100090004040E1F700C000001BBA18BA15BA12BA06
:1000A0005FEF91EE24E0515090402040E1F700C016
:1000B00000008BBB88BB85BB82BB3FEF41EE54E0A9
:1000C000315040405040E1F700C000001BBA18BA60
:1000D00015BA12BA9FEF21EE34E091502040304023
:1000E000E1F700C0000020E030E0AB01022E01C0CB
:1000F000440F0A94EAF74BBB48BB45BB42BB4FEFEA
:1001000051EE94E0415050409040E1F700C00000B3
:100110002F5F3F4F2830310541F720E030E0AF013D
:10012000022E02C0559547950A94E2F74BBB48BB97
:1001300045BB42BB4FEF51EE94E0415050409040E0
:10014000E1F700C000002F5F3F4F2830310539F73D
:0601500096CFF894FFCFEA
:00000001FF
