S01F00003033612D536576656E5365676D656E745F53696E676C652E737265637F
S11300000C942A000C943F000C943F000C943F0085
S11300100C943F000C943F000C943F000C943F0060
S11300200C943F000C943F000C943F000C943F0050
S11300300C943F000C943F000C943F000C943F0040
S11300400C943F000C943F000C943F000C943F0030
S11300500C943F0011241FBECFE5D8E0DEBFCDBF16
S113006010E0A0E6B0E0E6EDF0E002C005900D92ED
S1130070A037B107D9F70E9441000C9469000C9491
S11300800000CF93DF93CDB7DEB760970FB6F89437
S1130090DEBF0FBECDBF80E1E0E6F0E0DE011196E9
S11300A001900D928A95E1F78FEF87BBCE014196BF
S11300B0FE013196219128BB2FEF33ED40E321500F
S11300C030404040E1F700C00000E817F90791F71D
S10900D0EFCFF894FFCF0E
S11300D6C0F9A4B0999282F880908883C6A1868ECE
S9030000FC
