S01600003130622D4B65797061645F4C43442E737265638E
S11300000C942A000C9447000C9447000C9447006D
S11300100C9447000C9447000C9447000C94470040
S11300200C9447000C9447000C9447000C94470030
S11300300C9447000C9447000C9447000C94470020
S11300400C9447000C9447000C9447000C94470010
S11300500C94470011241FBECFE5D8E0DEBFCDBF0E
S113006010E0A0E6B0E0E8E1F1E102C005900D92F5
S1130070A238B107D9F720E0A2E8B0E001C01D9290
S1130080AA39B207E1F70E9499060C948A080C94E5
S11300900000009731F025E02A95F1F70000019760
S11300A0F8CF0895009741F0EFE9FFE03197F1F7B9
S11300B000C000000197F6CF0895982F9770869599
S11300C086958695813001F130F08230B1F183302C
S11300D009F44CC008954AB321E030E0662349F0A6
S11300E0B90102C0660F771F9A95E2F7CB01842B02
S11300F009C0B90102C0660F771F9A95E2F7CB01D8
S1130100809584238ABB089547B321E030E06623B9
S113011049F0B90102C0660F771F9A95E2F7CB0147
S1130120842B09C0B90102C0660F771F9A95E2F7C4
S1130130CB018095842387BB089544B321E030E04C
S1130140662349F0B90102C0660F771F9A95E2F75A
S1130150CB01842B09C0B90102C0660F771F9A95A1
S1130160E2F7CB018095842384BB089541B321E059
S113017030E0662349F0B90102C0660F771F9A95F3
S1130180E2F7CB01842B09C0B90102C0660F771FC7
S11301909A95E2F7CB018095842381BB0895982F2B
S11301A09770869586958695813001F130F082307E
S11301B0B1F1833009F44CC008954BB321E030E031
S11301C0662349F0B90102C0660F771F9A95E2F7DA
S11301D0CB01842B09C0B90102C0660F771F9A9521
S11301E0E2F7CB01809584238BBB089548B321E0CB
S11301F030E0662349F0B90102C0660F771F9A9573
S1130200E2F7CB01842B09C0B90102C0660F771F46
S11302109A95E2F7CB018095842388BB089545B372
S113022021E030E0662349F0B90102C0660F771F70
S11302309A95E2F7CB01842B09C0B90102C0660F7D
S1130240771F9A95E2F7CB018095842385BB0895A7
S113025042B321E030E0662349F0B90102C0660FE1
S1130260771F9A95E2F7CB01842B09C0B90102C02C
S1130270660F771F9A95E2F7CB018095842382BBA2
S11302800895282F2770869586958695813049F0A4
S113029030F0823041F0833079F480B305C089B303
S11302A003C086B301C083B390E002C095958795DF
S11302B02A95E2F78170089580E00895AF92CF9275
S11302C0EF920F931F93CF93DF93809386006093F5
S11302D08700409388002093890000938200E09275
S11302E08300C0928400A0928500C6E8D0E01C2F51
S11302F01C5F61E089910E945D001C13FACFC2E883
S1130300D0E01C2F1C5F60E089910E945D001C13EB
S1130310FACFDF91CF911F910F91EF90CF90AF90D3
S11303200895AF92BF92CF92DF92EF92FF920F9314
S11303301F93CF93DF9376E8E72E70E0F72EE70163
S113034014E01E0D60E089910E94CF001C13FACFC7
S113035082E890E0D4E0D80FCD2F62E8C62E60E0AA
S1130360D62E01E0F60181916F010E94410108231C
S1130370DC11F8CF91F38AE090E00E94490052E842
S1130380C52E50E0D52E01E0F60181916F010E9447
S113039041010823CC11F8CF01F346E8C42E40E014
S11303A0D42E60E0F60181916F010E94CF001C11F0
S11303B0F8CF32E8C32E30E0D32EC1E0F6018191AC
S11303C06F010E944101C823DC11F8CF91F78AE044
S11303D090E00E94490022E8C22E20E0D22EC1E023
S11303E0F60181916F010E944101C823DC11F8CF0D
S11303F001F7C6E8D0E061E089910E94CF001C13A8
S1130400FACF00E010E0570160E0F70180810E941C
S1130410CF0092E8C92E90E0D92EC0E0D0E0F601DA
S113042081916F010E944101882399F02196C43083
S1130430D105A9F7FFEFEF1AFF0A61E0F50180810A
S11304400E94CF000F5F1F4F04301105E1F688E7CB
S113045009C0000F111F000F111FC00FD11FC05A78
S1130460DF4F8881DF91CF911F910F91FF90EF9023
S1130470DF90CF90BF90AF9008950F931F93CF93C9
S1130480C82F84FB662760F90AE810E0F80182852A
S11304900E94CF00C5FB662760F9F80183850E949E
S11304A0CF00C6FB662760F9F80184850E94CF005F
S11304B06C2F661F6627661FF8018585CF911F91F3
S11304C00F910C94CF00CF93DF93CAE8D0E060E0A3
S11304D08B810E94CF0060E08C810E94CF0061E09C
S11304E08D810E94CF008AE090E00E94490060E084
S11304F08D81DF91CF910C94CF000F931F93CF93F5
S1130500C82F682F61700AE810E0F80186810E9404
S1130510CF00C1FB662760F9F80187810E94CF00F4
S1130520C2FB662760F9F80180850E94CF00C3FBF7
S1130530662760F9F8018185CF911F910F910C9482
S1130540CF00CF93DF93CAE8D0E061E08B810E94B3
S1130550CF0060E08C810E94CF0061E08D810E9419
S1130560CF008AE090E00E94490060E08D81DF9135
S1130570CF910C94CF00CF9380918E008F3F09F4DC
S113058044C060E0809197000E945D0060E080912B
S11305908D000E94CF0061E080918E000E94CF0008
S11305A060E080918F000E94CF008AE090E00E947A
S11305B0490061E080918F000E94CF008AE090E0C2
S11305C00E944900809197000E944101C82F8091A8
S11305D08C00843091F460E080918F000E94CF0001
S11305E08AE090E00E94490061E080918F000E94BF
S11305F0CF008AE090E00E944900C111D1CF61E0B0
S113060080919700CF910C945D0081E090E0CF91B0
S11306100C9452008F929F92AF92BF92CF92DF922E
S1130620EF92FF920F931F93CF93DF93CDB7DEB773
S1130630982EB62ED42EFF84188980938D00609353
S11306408E0040938F002093900000939100E092DD
S11306509200C0929300A092940080929500F09230
S11306609600109397002F3F39F00F3F29F08FEF3A
S1130670E81611F0C81204C084E080938C0013C003
S113068088E080938C0061E0822F0E945D0061E02D
S1130690802F0E945D0061E08E2D0E945D0061E06C
S11306A08C2D0E945D0061E0892D0E945D0061E057
S11306B08B2D0E945D0061E08D2D0E945D0061E044
S11306C08A2D0E945D0061E0882D0E945D0061E03A
S11306D08F2D0E945D0061E0812FDF91CF911F91EA
S11306E00F91FF90EF90DF90CF90BF90AF909F90CD
S11306F08F900C945D00CF93C82F0E94BB02809111
S11307008C00883021F48C2F0E947D0207C08C2F2E
S11307100E943D020E946302C295C07F8C2F0E94FA
S11307203D02CF910C94630290918A00891758F48A
S11307301092980080939900E82FF0E0E059FF4F61
S113074080810C947B03089581E00E947B0380E008
S11307500C94940360938B0080938A00833040F060
S11307606F7080E9860F809372006053609373000A
S113077084E690E00E94520080918C00883011F44D
S113078088E327C0843039F580E30E943D020E944B
S1130790630284E690E00E94520080E30E943D02DE
S11307A00E94630288EC90E00E94490080E30E946A
S11307B03D020E94630288EC90E00E94490080E2BE
S11307C00E943D020E94630288EC90E00E9449006E
S11307D088E20E947B038EE00E947B030C94A403B6
S11307E0809199008F5F8093990010929800909166
S11307F08A00891710F010929900E0919900F0E0B6
S1130800E059FF4F80810C947B03CF93C82F9091C4
S1130810980080918B00981760F4CA3051F00E94C0
S1130820BB0280918C00883049F48C2F0E947D0299
S11308300CC00E94F003CA3091F0F1CF8C2F0E94BB
S11308403D020E94A102C295C07F8C2F0E943D02EE
S11308500E94A102809198008F5F80939800CF91AD
S11308600895AF92BF92CF92DF92EF92FF920F93CF
S11308701F93CF93DF931F92CDB7DEB76B017C013B
S1130880AA24A394B12C4423E9F08FEF840F8501AB
S113089002C0000F111F8A95E2F7012E000C220BF3
S11308A0330B0C211D212E213F2181E0012B022B32
S11308B0032B09F480E0805D49830E94050449818B
S11308C04150E1CF0F90DF91CF911F910F91FF9095
S11308D0EF90DF90CF90BF90AF900895CF93DF93C8
S11308E0EC018991882319F00E940504FACFDF9165
S11308F0CF9108954F925F926F927F92BF92CF9261
S1130900DF92EF92FF920F931F93CF93DF93CDB7B4
S1130910DEB72A970FB6F894DEBF0FBECDBFB82E50
S1130920CB01BA01022F22E0B21216C0402F2A9640
S11309300FB6F894DEBF0FBECDBFDF91CF911F91EC
S11309400F91FF90EF90DF90CF90BF907F906F90CA
S11309505F904F900C9431046115710581059105E8
S113096049F0FE0131966F017F014B2C512C612C13
S1130970712C2AC080E32A960FB6F894DEBF0FBE0E
S1130980CDBFDF91CF911F910F91FF90EF90DF903A
S1130990CF90BF907F906F905F904F900C94050420
S11309A06115710581059105A1F0162FA30192012E
S11309B00E946808CA01B901B29E10191124F701F6
S11309C01083FFEFEF1AFF0A1E2D1C19101740F3B6
S11309D00FC00B3068F4F7011082F3CFFE01E10F72
S11309E0F11D80818A3038F0895C0E940504115021
S11309F01111F4CF02C0805DF8CF2A960FB6F89497
S1130A00DEBF0FBECDBFDF91CF911F910F91FF903D
S1130A10EF90DF90CF90BF907F906F905F904F905A
S1130A2008958F929F92AF92BF92CF92DF92EF92EE
S1130A30FF926B017C010E943E074B015C012FEF8A
S1130A40AB01BC018AE00E947A048EE20E94050494
S1130A50C501B4010E946D079B01AC01C701B60139
S1130A600E94D10620E034E244E759E40E94FB07E7
S1130A700E943E07AB01BC012FEF8AE0FF90EF908C
S1130A80DF90CF90BF90AF909F908F900C947A049A
S1130A90CF92DF92EF92FF920F931F93CF93DF9346
S1130AA000D000D01F92CDB7DEB7FE017096C19082
S1130AB0D1908F01F6018081882309F42CC18532FD
S1130AC009F00EC176018FEFE81AF80AF601818168
S1130AD090ED980F9A3008F0B7C020E090ED980F91
S1130AE09A3058F4FAE02F9F900D1124292F8FEF9C
S1130AF0E81AF80AF7018081F1CF883509F4A8C013
S1130B0070F4843409F450C018F48234D9F4BDC0AC
S1130B10833509F4DAC0853509F47DC0C6C086364C
S1130B2009F4C5C040F4833681F0843621F182365D
S1130B3009F0D9C09DC0853709F459C0883709F434
S1130B4079C0C1C0833408F4E0C06801F2E0CF0E7C
S1130B50D11CF80180810E940504C0C0893508F1C8
S1130B60863609F4A4C008F03FC0833671F3843696
S1130B7009F07BC02FEF6801F2E0CF0ED11CF80121
S1130B800081118117FF08C01195019511098DE2AB
S1130B902D830E9405042D81A801110F660B770B8C
S1130BA043C0843471F52FEF6801F4E0CF0ED11CFB
S1130BB0F801408151816281738177FF35C070955E
S1130BC06095509541955F4F6F4F7F4F8DE22D8318
S1130BD049835A836B837C830E9405047C816B81E7
S1130BE05A8149812D8120C0853701F52FEF680195
S1130BF0F2E0CF0ED11CF8014081518160E070E039
S1130C0013C0853408F474C0833509F45EC0853597
S1130C1009F04BC02FEF6801F4E0CF0ED11CF801AE
S1130C2040815181628173818AE01CC0883709F058
S1130C304AC02FEF6801F2E0CF0ED11CF8014081C9
S1130C40518160E070E00DC0883509F087CF2FEF47
S1130C506801F4E0CF0ED11CF8014081518162811A
S1130C60738180E10E947A0439C08236E1F52FEF66
S1130C706801F2E0CF0ED11CF801608171812F3F31
S1130C8009F420E180E090E00CC06801F4E0CF0EAC
S1130C90D11CF80160817181828193812F3F09F415
S1130CA020E1422F0E94310419C08634E1F4680126
S1130CB0F4E0CF0ED11CF8016081718182819381AF
S1130CC00E9411050BC0833771F46801F2E0CF0E66
S1130CD0D11CF801808191810E946E04860103C0B9
S1130CE00E94050476016701FFEFCF1ADF0AE2CE06
S1130CF0823409F027CF6801F4E0CF0ED11CF8014B
S1130D006081718182819381CBCF853261F785E2E5
S1130D100E940504E8CF0F900F900F900F900F9052
S1130D20DF91CF911F910F91FF90EF90DF90CF90C3
S1130D3008958FE08F938EE08F938DE0882E9CE052
S1130D40A92ECC24CA94EE24EA940FEF2FEF4AE0A4
S1130D5069E088E00E940A0360E182E00E94AA033D
S1130D602FE1A22E3EE1C32E4DE1E42E0CE12BE156
S1130D704AE169E188E10E945E0184E790E09F9383
S1130D808F930E9448050F900F900F900F900E9430
S1130D909101C82F81E00E9494038C2F0E940504C6
S1130DA0F6CF5058BB27AA270E94E9060C94C10726
S1130DB00E94B30738F00E94BA0720F039F49F3F2D
S1130DC019F426F40C94B0070EF4E095E7FB0C94A8
S1130DD0AA07E92F0E94D20758F3BA1762077307CC
S1130DE08407950720F079F4A6F50C94F4070EF423
S1130DF0E0950B2EBA2FA02D0B01B90190010C0127
S1130E00CA01A0011124FF27591B99F0593F50F43E
S1130E10503E68F11A16F040A22F232F342F442796
S1130E20585FF3CF469537952795A795F04053958E
S1130E30C9F77EF41F16BA0B620B730B840BBAF05E
S1130E409150A1F0FF0FBB1F661F771F881FC2F7C9
S1130E500EC0BA0F621F731F841F48F487957795DD
S1130E606795B795F7959E3F08F0B0CF9395880F97
S1130E7008F09927EE0F9795879508950E94DA0751
S1130E8088F09F5798F0B92F9927B751B0F0E1F047
S1130E90660F771F881F991F1AF0BA95C9F714C0F7
S1130EA0B13091F00E94F407B1E008950C94F40776
S1130EB0672F782F8827B85F39F0B93FCCF3869530
S1130EC077956795B395D9F73EF49095809570958D
S1130ED061957F4F8F4F9F4F0895E89409C097FB0A
S1130EE03EF490958095709561957F4F8F4F9F4FFD
S1130EF09923A9F0F92F96E9BB279395F695879541
S1130F0077956795B795F111F8CFFAF4BB0F11F403
S1130F1060FF1BC06F5F7F4F8F4F9F4F16C08823AA
S1130F2011F096E911C0772321F09EE8872F762FE0
S1130F3005C0662371F096E8862F70E060E02AF021
S1130F409A95660F771F881FDAF7880F969587950D
S1130F5097F9089597F99F6780E870E060E0089535
S1130F609FEF80EC089500240A94161617061806BD
S1130F700906089500240A94121613061406050699
S1130F800895092E0394000C11F4882352F0BB0F2A
S1130F9040F4BF2B11F460FF04C06F5F7F4F8F4F8D
S1130FA09F4F089557FD9058440F551F59F05F3FC8
S1130FB071F04795880F97FB991F61F09F3F79F077
S1130FC087950895121613061406551FF2CF4695F9
S1130FD0F1DF08C0161617061806991FF1CF86957B
S1130FE07105610508940895E894BB27662777275F
S1130FF0CB0197F908950E940E080C94C1070E9432
S1131000B30738F00E94BA0720F0952311F00C942E
S1131010AA070C94B00711240C94F5070E94D20778
S113102070F3959FC1F3950F50E0551F629FF00137
S1131030729FBB27F00DB11D639FAA27F00DB11D50
S1131040AA1F649F6627B00DA11D661F829F2227D9
S1131050B00DA11D621F739FB00DA11D621F839F60
S1131060A00D611D221F749F3327A00D611D231F36
S1131070849F600D211D822F762F6A2F11249F5784
S113108050409AF0F1F088234AF0EE0FFF1FBB1F87
S1131090661F771F881F91505040A9F79E3F510546
S11310A080F00C94AA070C94F5075F3FE4F3983E94
S11310B0D4F3869577956795B795F795E7959F5FF0
S11310C0C1F7FE2B880F911D9695879597F9089582
S11310D0A1E21A2EAA1BBB1BFD010DC0AA1FBB1F38
S11310E0EE1FFF1FA217B307E407F50720F0A21BAA
S11310F0B30BE40BF50B661F771F881F991F1A9417
S113110069F760957095809590959B01AC01BD0140
S10B1110CF010895F894FFCF0C
S11311183031323334353637383941424344454621
S113112880C090D04B657920507265737365643ABA
S10511380000B1
S9030000FC
